:020000040800F2
:1000000070150020450200083D250008051E000867
:10001000091E0008D31500081B3700080000000067
:10002000000000000000000000000000852C000817
:1000300061170008000000000D2B0008552F000874
:100040005F0200085F0200085F0200085F0200080C
:100050005F0200085F0200085F0200085F020008FC
:100060005F0200085F0200085F0200085F020008EC
:100070005F0200085F0200085F0200085F020008DC
:100080005F0200085F0200085F0200085F020008CC
:100090005F0200085F0200085F0200085F020008BC
:1000A0005F0200085F0200085F0200085F020008AC
:1000B000B92F00085F020008F12F00085F02000856
:1000C0005F0200085F0200085F0200085F0200088C
:1000D0005F02000841320008C932000811340008EC
:1000E0005F0200085F0200085F0200085F0200086C
:1000F0005F0200085F0200085F0200085F0200085C
:100100005F0200085F0200085F0200085F0200084B
:100110005F0200085F0200085F0200085F0200083B
:100120005F0200085F0200085F0200085F0200082B
:1001300000F002F800F076F80AA090E8000C824483
:100140008344AAF10107DA4501D100F06BF8AFF260
:10015000090EBAE80F0013F0010F18BFFB1A43F0A5
:10016000010318478C600000AC6000000A444FF0A7
:10017000000C10F8013B13F0070408BF10F8014B06
:100180001D1108BF10F8015B641E05D010F8016B4B
:10019000641E01F8016BF9D113F0080F1EBF10F8AF
:1001A000014BAD1C0C1B09D16D1E58BF01F801CBD2
:1001B000FAD505E014F8016B01F8016B6D1EF9D555
:1001C0009142D6D37047000000230024002500266A
:1001D000103A28BF78C1FBD8520728BF30C148BFAA
:1001E0000B607047662905F01C83642900F0BE800F
:1001F000752900F0BB80782900F01F81632900F089
:10020000A284732900F0A784002070471FB500F076
:10021000B9FC04000020002104F042FCE0601FBD96
:1002200010B510BD00F0AEFD1146FFF7EFFF03F073
:10023000EBFA00F0CCFD03B4FFF7F2FF03BC03F0D0
:1002400089FA00000948804709480047FEE7FEE7B1
:10025000FEE7FEE7FEE7FEE7FEE7FEE7FEE7FEE776
:1002600004480549054A064B70470000592F00080D
:1002700031010008700F002070150020701100205F
:1002800070110020704700000FB4044910B503AA94
:10029000029800F065FC10BC5DF814FB180000200B
:1002A0000FB41CB5084B06AA7B446946009005981C
:1002B00000F027FC04460020694600F035FC20468B
:1002C0001CBC5DF814FB00007D08000070B50446FE
:1002D00085690068C10601D5302600E02026C007E8
:1002E00007D070BDD4E9012130469047206A401CF8
:1002F00020626D1EF6D570BD70B504468569007824
:10030000C00707D170BDD4E9012120209047206AA1
:10031000401C20626D1EF6D570BD70B50C460546BA
:10032000012A05D02878800600D5EA69002302E07A
:10033000012305E05B1C934202D2E05C0028F9D166
:10034000A869E618C01AA861286A184428622846D5
:10035000FFF7BCFF04E0D5E9012114F8010B904739
:10036000B442F8D32846FFF7C7FF70BD2DE9F0412E
:100370000646002410687529314616A510D0AFF343
:100380000080002802DA404213A507E031688A079E
:1003900001D512A502E0490704D511A5012401E009
:1003A000AFF3008000210A2206F1240709E0B0FB28
:1003B000F2FCB0FBF2F302FB1C003030785418461C
:1003C000491C0028F3D123462A463046BDE8F041B7
:1003D00000F02CB9000000002D0000002B000000F0
:1003E00020000000F0B40D460188090502D5214C1B
:1003F0007C4402E01F4C7C440E34002100F12406B2
:1004000008E002F00F071209E75D42EA03721B09D8
:100410007754491C52EA0307F3D1027800231207EC
:1004200004D5702D06D009B1022311342246F0BC48
:1004300000F0FCB801231034F8E770B504460D460F
:1004400021461068AFF30080024629462046BDE8E9
:1004500070400023C6E7D21D22F00703D3E9002332
:10046000C0E70368126843F0200303600823C361F8
:100470000023B7E7705C00002DE9F05F8946044671
:100480004FF0000ADFF874B1FB44C0F820A020460A
:10049000E1688847002874D0252806D0D4E90121D6
:1004A0009047206A401C2062F1E700265F46204604
:1004B000E16888472028054607DB312D05D27819E9
:1004C00010F8200C08B10643F1E7B00701D526F07B
:1004D0000406C4F81CA00027C4F818A02A2D09D0CF
:1004E000284603F030F938B304EB8708303DC8F8EC
:1004F000185019E059F8041B204604EB870291615B
:10050000E1688847012F054618D1E069002820DA04
:1005100026F020061DE0D8F8180000EB800005EB5F
:1005200040003038C8F818002046E1688847054682
:1005300003F009F90028EED1012F0AD02E2D08D1A1
:100540002046E16888477F1C0546022F46F02006BA
:10055000C4DBA069002803DA404246F00106A0612E
:10056000F00701D026F010066C2D0BD0682D09D0B5
:100570004C2D39D06A2D35D0742D35D07A2D33D00D
:1005800016E038E0E1682F4620468847B842054625
:1005900009D16C2F26D04FF48060E16806432046D5
:1005A0008847054604E06C2F1AD04FF4807006434C
:1005B0000DB3A5F14100192802D8203546F4006694
:1005C0004A462946204626604E46FFF70BFE80B17C
:1005D00001280BD0F61D26F0070000F1080956E7A8
:1005E0004020E4E78020D8E70020D6E706F10409A0
:1005F0004DE7284652E7206ABDE8F09F005C000006
:1006000030B505460B462A4613F8014B12F8010B8C
:1006100008B1A042F8D01CB1002802D06D1CF1E74F
:10062000284630BD70477047704770472DE9F04746
:100630000D4699469246044600F124080168880652
:1006400004D5E06921F01001216000E00120A842FA
:1006500001DD471B00E00027A1697A1902EB0900C0
:10066000081AA0612078C00602D42046FFF72EFEAB
:10067000002608E0D4E901211AF806009047206A14
:10068000401C761C20624E45F4DB2078C0060AD55B
:100690002046FFF71BFE06E0D4E9012130209047F9
:1006A000206A401C2062381EA7F10107F4DC07E035
:1006B000D4E9012118F805009047206A401C206207
:1006C000281EA5F10105F3DC2046FFF715FE207872
:1006D000000602D50220BDE8F0870120FBE7704745
:1006E0002DE9FF4F0C461E464FF0FF378BB0D2E985
:1006F0000001DDF860800A908A46C1F30A5505B909
:100700003D46002108464FF00000BAF1000F00F40A
:10071000400005DA00EB80004FF4400101EA500090
:100720004FEA9059B9F1010F00DDB9460A9850EA35
:100730004A000ED044F61050A5F2FF3545432F1461
:10074000B8F1000F1ED07542291E1EDDC9F100024E
:100750001CE0B8F1010F4FF0000001D0302103E0A0
:10076000F24305E02154401CB042FBDB304600223E
:10077000002121540B99C1F80880C1E900200FB075
:10078000BDE8F08FBD1B6D1CDEE74A4600DA69420A
:1007900006A800F081FA06AB93E8070003AB83E8F4
:1007A000070050460A9900F059FB8DE80700A0F5B4
:1007B00000501F3800900398002D09DD42F21F0100
:1007C0004A46084403A90390684600F0B8FD08E0D3
:1007D000A0F500504A461F3803A90390684600F070
:1007E000C2FD8DE807000004000C03D04FF0FF307D
:1007F000410800E01046B8F1000F03D0002200923B
:1008000015461EE0751E05D400F0C0F93032625561
:100810006D1EF9D5B3460122084302D000227F1C89
:1008200004E02078302801D100227F1E002A099799
:1008300086D01DE0112D07DA00F0A8F9303262559C
:100840006D1C50EA0102F5D1084302D00098C8B1EE
:100850000EE00021681E05E0235C625C63542254B4
:10086000401E491C8142F7DBAB46A81B401E099085
:10087000002004F80B000B98099AC0F80880C0E922
:10088000002B7CE711264FF0000859E72DE9F04FC7
:1008900088460446D21D22F0070191B0D1E900013B
:1008A000CDE90A0102F03BFF02460B98C00F01D0D0
:1008B0002D2007E02068810701D52B2002E02021B0
:1008C00001EAC000032A099001D0072A05DB03468C
:1008D0004146204600F0A0F90BE12078800601D5C2
:1008E000E06900E00620B8F1650F814606D0B8F156
:1008F000660F18D0B8F1670F70D131E00020B9F160
:10090000110F009001DB112301E009F101030AAA94
:1009100001A90CA8FFF7E4FEDDE90C70002609F13F
:100920000105834647E001204B4600904FF0004709
:100930000AAA01A90CA8FFF7D3FEDDE90DB00C99B6
:100940005D46002610B909F101000D18B9EB05004C
:1009500003D4C0F1FF3609F10105A5EB09002BE036
:10096000B9F1010F01DA4FF001090020B9F1110FBF
:100970000090484601DD112300E003460AAA01A9C0
:100980000CA8FFF7ADFEDDE90C704D46002683464E
:10099000207800070AD4AB4500DA5D4601A8012D96
:1009A00004DD411911F8011C302907D04F4502DA46
:1009B00017F1040F04DA012082460FE06D1EEEE706
:1009C000002F02DCED1B3E4403E0781CA84200DD52
:1009D0007D1CB81B00F1010A4FF00047207800078A
:1009E00003D4AA4501DB4FF0FF3A0021B7F1004FD5
:1009F0000DF143088DF8431024D002202B23002F43
:100A000001DA7F422D230A21021EA0F1010000DC41
:100A10005FB197FBF1FC97FBF1F201FB1C7C1746E1
:100A20000CF1300C08F801CDEEE7A8F101000370DD
:100A30002188090501D5452100E06521A0F10108C3
:100A400000F8011C09980FA9A1EB0807FF1D00B1D0
:100A50000120411901EBEA70A1693844081A401ECF
:100A6000A0612078C00602D42046FFF72FFC099829
:100A700028B1D4E901219047206A401C20622078E7
:100A8000C00622D52046FFF721FC1EE0002E04DB25
:100A9000B34502DD01A8805D00E03020D4E90121EA
:100AA0009047206A401C2062761CAAF101005FEA90
:100AB000000A0AD100F066F8C0680168405CD4E919
:100AC00001219047206A401C2062281EA5F10105E3
:100AD000DCDC07E0D4E9012118F8010B9047206A1B
:100AE000401C2062381EA7F10107F3DC2046FFF707
:100AF00003FC032011B043E601694A1C0261087837
:100B0000704700B58FB0CDE901310021059105494D
:100B10007944CDE9031011466846FFF7ADFC0FB0EC
:100B200000BD0000E5FFFFFF0A6802F8010B0A6044
:100B3000704710B5436913B1AFF3008001E0FFF7D0
:100B4000ECFB012010BD127800F124010A70002294
:100B50004A700122EDE711684FF0FF32E9E700002B
:100B6000074B70B50D467B44FFF7CBFF0446284684
:100B700000F000F910B14FF0FF3070BD204670BD9D
:100B8000832C000000487047300F002030B5B0F1D2
:100B90000A024FEA900E71F100034EEA817EB0EB3B
:100BA0000E0061EB91014FEA101E4EEA017E10EB40
:100BB0000E0041EB11114FEA102E4EEA016E10EBC0
:100BC0000E0041EB11214FEA104E4EEA014E10EBA0
:100BD0000E0041EB1141401841F100014FEAD000F5
:100BE00040EA41704FEAD10110EB80054FEA8104E1
:100BF00044EA907444EB01046D1944EB0404521B65
:100C0000A3414FF0000348BF0A3200D530BD401C5D
:100C100041F1000130BD00002DE9F0411F460446BE
:100C200003260168072A01F4006004DB08B116A559
:100C300005E016A503E008B115A500E015A521F013
:100C400010002060A069C01EA0610FB1401EA0610D
:100C50002046FFF73BFB4FB1D4E9012138469047CE
:100C6000206A401C2062C01C206206E0206AFAE76D
:100C7000D4E9012115F8010B9047761EF8D22046E1
:100C8000FFF73AFBBDE8F0814E414E006E616E0009
:100C9000494E4600696E66002DE9F04781461646CA
:100CA0008AB0334878440DC88DE80D003048784448
:100CB000801C03AC0DC884E80D0041F69B3008444D
:100CC000372190FBF1F290FBF1F5A5F1800501FBD6
:100CD00012041B3C02D56442012000E00020DFF832
:100CE00090A080460027FA44AAF1BE0A0DE0E00772
:100CF00009D03246684607EB47010AEB810100F054
:100D000032FB8DE8070064107F1C002CEFD1184FD8
:100D10007F44AC3F18E0E80714D007EB04100DF156
:100D2000180A90E80E008AE80E00C068F04201D16F
:100D300098190890324606A903A800F014FB03ABEB
:100D400083E807006D10641C002DE4D1324669462B
:100D5000B8F1000F03A802D000F0F1FA01E000F0B2
:100D600002FBC9E90001C9F808200AB0BDE8F08714
:100D700074540000007B00F080007047004870470A
:100D8000100F00207546FFF7F9FFAE4605006946D3
:100D9000534620F00700854618B020B5FFF760FAEB
:100DA000BDE820404FF000064FF000074FF000086C
:100DB0004FF0000B21F00701AC46ACE8C009ACE8ED
:100DC000C009ACE8C009ACE8C0098D4670470446CC
:100DD000AFF300802046FFF72EFA00004FF0013CF1
:100DE00050F8042B51F8043B9A4221D1A2EB0C039A
:100DF000934313EACC1317D150F8042B51F8043B5A
:100E00009A4215D1A2EB0C03934313EACC130BD1F6
:100E100050F8042B51F8043B9A4209D1A2EB0C0381
:100E2000934313EACC13DBD04FF00000704700BFB0
:100E3000D01A01BAB1FA81F101F0180122FA01F0D9
:100E4000CB40C1F12001DBB2C0B2C01A2CFA01F3D1
:100E5000D11A914311EAC311E6D170475FEA400C01
:100E600008BF91F0000F4FEA8C234FEAC12243EAFA
:100E700051514FEA1C5018BF00F5F0404FEA3000C6
:100E800018BF41F000415FEA6C5C00F02980BCF1C2
:100E9000FF3F08BF40F080407047130C06BF1204AC
:100EA0004FF0100C4FF0000C130E04BF12020CF1A7
:100EB000080C130F04BF12010CF1040C930F04BFB4
:100EC00092000CF1020CD30F04BF52000CF1010C84
:100ED00011464FF00002A0F11F00A0EB0C0070477C
:100EE00011F0004F08BF704731F000413FF4D5AF1B
:100EF0000B0C06BF09044FF0100C4FF0000C0B0E4A
:100F000004BF09020CF1080C0B0F04BF09010CF11E
:100F1000040C8B0F04BF89000CF1020CCB0F04BF33
:100F200049000CF1010CCCF12003A0EB0C0022FADB
:100F300003F302FA0CF241EA030100F101007047E9
:100F400020F07F4C80EA030023F07F47ACEB0703DF
:100F500003F57C5300F0004003F1FF032DE98049C5
:100F60004FEA154B09B44FEA144325EA0B4E24EA25
:100F700003480FF2042606EB132749083E785FEA80
:100F8000320203FB0667C7F5000707FB06F64FEAC8
:100F900054374FEAD64606F1020607FB066CCCF141
:100FA000005C4FEA1C472CEA074C07FB06F40CFBDD
:100FB00006F504EB15464FEA961634BF00204FF0B5
:100FC00000404FEAD13706FB07FC4FEA1C4C0CFBF4
:100FD0000BF7D21B03FB0CF761EB07010CFB0EF7C1
:100FE000B0EB074072EB17420CFB08F734BFA2EBE3
:100FF0000742B2EB074261EB17414FEA0C444FEA5C
:10100000910706FB07FC4FEA1C4C0CFB0BF7B0EBFF
:10101000C74072EB573203FB0CF734BFA2EBC74259
:10102000B2EBC74261EB57310CFB0EF7B0EBC700D8
:1010300072EB57720CFB08F734BFA2EBC702B2EB9E
:10104000C70261EB5771039F4FEA816141EA921138
:1010500004EBCC044FEAD1374FEA826206FB07FC6F
:1010600042EA90124FEA80604FEA1C4C0CFB0BF7EF
:10107000D21B03FB0CF761EB07010CFB0EF7B0EB87
:10108000074072EB17420CFB08F734BFA2EB074294
:10109000B2EB074261EB17414FEA8C554FEA9107DB
:1010A00004EB9C2406FB07FC4FEA1C4C0CFB0BF7E3
:1010B000B0EBC74072EB573203FB0CF734BFA2EB27
:1010C000C742B2EBC74261EB57310CFB0EF7B0EBF6
:1010D000C70072EB57720CFB08F734BFA2EBC702D4
:1010E000B2EBC70261EB577115EB4C254FEA8161FA
:1010F00041EA92114FEA82624FEAD13742EA9012F6
:1011000006FB07FC44F100044FEA80604FEA1C4CE8
:101110000CFB0BF7D21B03FB0CF761EB07010CFB7D
:101120000EF7B0EB074072EB17420CFB08F734BF29
:10113000A2EB0742B2EB074261EB174115EB1C151E
:101140004FEA813141EA92414FEA823242EA9042CB
:101150004FEA80304FEA0C7644F1000448EA03433A
:101160004EEA0B484FF0000EB2EB080C71EB030790
:1011700024BF624639464EEB0E0E4FF0000B0018AE
:10118000524149414BEB0B0BB2EB080C71EB0307DF
:101190007BF1000B24BF624639464EEB0E0E4FF03A
:1011A000000B0018524149414BEB0B0BB2EB080C02
:1011B00071EB03077BF1000B24BF624639464EEB0F
:1011C0000E0E51EA020718BF46F0010616EB0E7626
:1011D00055F1000254F1000103D5BDE88901BDE8D5
:1011E0000088BDE88901BDE80048B619524141EBCD
:1011F0000101A3F10103704780807F7E7D7C7B7AB3
:101200007978777676757473727171706F6E6E6DB2
:101210006C6C6B6A6A696868676666656464636358
:1012200062616160605F5F5E5E5D5D5C5C5B5B5ADE
:101230005A5959585857575656555555545453534B
:1012400052525251515050504F4F4F4E4E4D4D4DA6
:101250004C4C4C4B4B4B4A4A4A49494948484847F1
:10126000474747464646454545444444444343432F
:101270004342424242414141002B26D4770021D0D3
:101280001CB54FEA370703B44FF010004FF01001C0
:101290004FF000000FBCBDE810400BF1010BBBF19B
:1012A000010F08BF5FEA170722BF12F1010211F117
:1012B00001014FF0004143F1000300F0004043EA18
:1012C00000007047F9D35708DAE746EA064613F1FB
:1012D000400F4FEA16461FDD13F1200FDFBF164304
:1012E0000A46002120335B42C8D0C3F1200746EAFA
:1012F000064602FA07F74FEA164646EA0706C3F122
:10130000200722FA03F201FA07F721FA03F14FF05E
:10131000000342EA0702B1E746EA020646EA064649
:101320004FEA164646EA0106BCBF46EA0646360CB8
:101330004FF000034FF000024FF000019EE72DE94F
:10134000C048934630B491E8380007C831EA400CF1
:1013500048BF34EA430C03D5FFF7F2FDFFF78CFFDB
:10136000F0BCBDE800882DE9C048934630B491E850
:10137000380007C810F0804F08BF13F0804F03D12A
:1013800000F005F8FFF778FFF0BCBDE8008820F01A
:101390007F4780EA030023F07F4C07EB0C03A3F5A3
:1013A0007C5300F00040A3F1FE0392F0000F00F028
:1013B000B38095F0000F00F077802DE901494FEAE6
:1013C00011404FEA144621EA004800FB06FC24EADB
:1013D000064708FB06F607FB08F800FB07F718EBC3
:1013E00006484CEB164C4FEA124B18EB07484FEAF5
:1013F00015464CEB174022EA0B4E0BFB06FC25EA88
:1014000006470EFB06F607FB0EFE0BFB07F71EEB6F
:10141000064E4CEB164C4FF000061EEB074E4CEB05
:10142000174B18EB0B0840F1000018EB0E0B58EBB4
:10143000000840F100008F1A4FF000013CBFC94383
:10144000661B14BFB5EB040C00213CBFC943F61B5F
:101450004FEA17444EEA8E0E27EA04454FEA1C472E
:1014600004FB07622CEA074C05FB07F70CFB05F6AB
:1014700004FB0CFC16EB074642EB174216EB0C463E
:1014800042EB1C421BEB060658EB0202414146EAC6
:101490009E0601D5BDE80189B619524141EB010113
:1014A000A3F10103BDE801894FEA14454FEA114752
:1014B00024EA054621EA074C05FB07F406FB07F77B
:1014C0000CFB06F105FB0CFC11EB074144EB174448
:1014D0004FEA124711EB0C4144EB1C4422EA074C43
:1014E00005FB07F206FB07F70CFB06F605FB0CFCF9
:1014F00016EB074642EB174216EB0C4642EB1C4537
:101500006A1854F1000148BF7047B619524141EBC7
:101510000101A3F10103704795F0000F37D04FEAA6
:1015200011424FEA144721EA024624EA074C02FB23
:1015300007F106FB07F70CFB06F402FB0CFC14EBAF
:10154000074441EB17414FEA154714EB0C4441EBBC
:101550001C4125EA074C02FB07F506FB07F70CFBCD
:1015600006F602FB0CFC16EB074645EB174516EB9F
:101570000C4645EB1C42121951F1000148BF70475F
:10158000B619524141EB0101A3F1010370474FEA43
:1015900014454FEA114724EA054621EA074C05FBAA
:1015A00007F106FB07F70CFB06F24FF0000605FB00
:1015B0000CFC12EB074241EB174112EB0C4251EBD2
:1015C0001C4148BF7047921841EB0101A3F1010390
:1015D000704700BFFEE7000001684FF6FE72114041
:1015E00001600021016041608160C1604B49884217
:1015F00008D14A490839496841F00F01474A083A79
:1016000051608AE045491431884208D1434908397C
:10161000496841F0F001414A083A51607DE03F4994
:101620002831884208D13D490839496841F4706140
:101630003A4A083A516070E038493C31884208D152
:1016400036490839496841F47041344A083A5160D2
:1016500063E032495031884208D13049083949683D
:1016600041F470212D4A083A516056E02B4964310B
:10167000884208D129490839496841F47001274A4C
:10168000083A516049E025497831884208D1234918
:101690000839496841F07061204A083A51603CE0DD
:1016A0001F49884206D1011F096841F00F01021F3E
:1016B000116032E01A491431884208D11849091FD3
:1016C000096841F0F001164A121F116025E0144923
:1016D0002831884208D11249091F096841F4706114
:1016E0000F4A121F116018E00D493C31884208D1A1
:1016F0000B49091F096841F47041094A121F116022
:101700000BE007495031884207D10549091F096894
:1017100041F47021024A121F116070470800024014
:101720000804024010B50022026847F6F0739A439D
:101730000C6A8B6823430C6923434C6923438C69EF
:101740002343CC6923434C6A23438C6A23431A43C3
:101750000260CB6843600B6883604B68C36010BD58
:1017600070472DE9F04102460025002600200023A5
:101770000024002791F803C00CF00F0591F803C076
:101780000CF0100CBCF1000F03D091F802C04CEA31
:10179000050591F800C0BCF1000F31D0146800209D
:1017A0002BE04FF0010C0CFA00F3B1F800C00CEA8A
:1017B00003069E4220D183004FF00F0C0CFA03F772
:1017C000BC4305FA03FC4CEA040491F803C0BCF1E5
:1017D000280F06D14FF0010C0CFA00FCC2F814C01F
:1017E0000AE091F803C0BCF1480F05D14FF0010C9D
:1017F0000CFA00FCC2F810C0401C0828D1D31460B9
:10180000B1F800C0BCF1FF0F34DD546800202EE0B9
:1018100000F1080C4FF0010808FA0CF3B1F800C011
:101820000CEA03069E4221D183004FF00F0C0CFA04
:1018300003F7BC4305FA03FC4CEA040491F803C027
:10184000BCF1280F05D100F1080C08FA0CF8C2F819
:10185000148091F803C0BCF1480F07D100F1080CC7
:101860004FF0010808FA0CF8C2F81080401C082854
:10187000CED35460BDE8F081F0B50A4600230024C1
:101880000021002500F00046B6F1004F02D11D4EA8
:10189000F16901E01B4E7168C0F3034583B200F4A7
:1018A0004016B6F5401F08D121F07061154E7668DC
:1018B00026F07066134F7E6012E000F48016B6F5D5
:1018C000801F06D1032606FA05F4A14341F070619A
:1018D00006E0460D360103FA06F6B14341F07061A9
:1018E00022B1460D360103FA06F6314300F00046F8
:1018F000B6F1004F02D1034EF16101E0014E71607B
:10190000F0BD000000000140416170470161704777
:1019100070B504460D462946204600F0F9FC2946DC
:10192000204600F073FA2946204600F023FB2946A2
:10193000204600F053FB2946204600F0ABFB294629
:10194000204600F0B9FC70BD2DE9F843FE49D1F8FE
:10195000860003F0ABFD8046FC49404603F0A8FC3E
:10196000074603F00BFC054608202A460B460121DA
:101970000090084600F046FE08234522012146203B
:1019800000F0F4FFF149404603F092FC0546F049AF
:1019900003F0A0FE7ED2ED49404603F089FC0746E5
:1019A00003F0ECFB054608202A460B460121009077
:1019B000084600F027FE612001F0ECFF622001F0F4
:1019C000E9FF404603F036FD0446E24894FBF0F0A0
:1019D000C5B2284601F0DEFFDE4894FBF0F100FBC3
:1019E0001144DD4894FBF0F0C5B2284601F0D2FF67
:1019F000D94894FBF0F100FB1144D84894FBF0F077
:101A0000C5B2284601F0C6FFD44894FBF0F100FBB4
:101A1000114442F2107094FBF0F0C5B2284601F078
:101A2000B9FF42F2107094FBF0F100FB11444FF447
:101A30007A7094FBF0F0C5B2284601F0ABFF4FF48A
:101A40007A7094FBF0F100FB1144642094FBF0F0F9
:101A5000C5B2284601F09EFF642094FBF0F100FB24
:101A600011440A2094FBF0F0C5B2284601F092FF21
:101A70000A2094FBF0F100FB1144E0B201F08AFF70
:101A80000A2001F08DFE452001F084FF0A2001F0BC
:101A900087FE00E003E0652001F07CFF64E0612048
:101AA00001F078FF632001F075FF404603F0C2FCAF
:101AB0000446A94894FBF0F0C5B2284601F06AFF3D
:101AC000A54894FBF0F100FB1144A44894FBF0F00E
:101AD000C5B2284601F05EFFA04894FBF0F100FB80
:101AE000114442F2107094FBF0F0C5B2284601F0A8
:101AF00051FF42F2107094FBF0F100FB11444FF4DF
:101B00007A7094FBF0F0C5B2284601F043FF4FF421
:101B10007A7094FBF0F100FB1144642094FBF0F028
:101B2000C5B2284601F036FF642094FBF0F100FBBB
:101B300011440A2094FBF0F0C5B2284601F02AFFB8
:101B40000A2094FBF0F100FB1144E0B201F022FF07
:101B50000A2001F025FE452001F01CFF0A2001F0BB
:101B60001FFE652001F016FF7849404603F0A0FBF8
:101B70008046054603F002FB0646734890F88A004B
:101B800032460B4676A100907B48FEF789FB6E49F2
:101B9000D1F8810003F08AFC80466C49404603F08E
:101BA00087FB074603F0EAFA054608202A460B465B
:101BB00001210090022000F025FD08234E22022181
:101BC000462000F0D3FE642001F0E4FE5F49404669
:101BD00003F06EFB05465E4903F07CFD6ED2622089
:101BE00001F0D8FE404603F025FC0446594894FB1A
:101BF000F0F0C5B2284601F0CDFE564894FBF0F156
:101C000000FB1144544894FBF0F0C5B2284601F0A3
:101C1000C1FE514894FBF0F100FB11444F4894FB86
:101C2000F0F0C5B2284601F0B5FE4C4894FBF0F147
:101C300000FB114442F2107094FBF0F0C5B228464C
:101C400001F0A8FE42F2107094FBF0F100FB114489
:101C50004FF47A7094FBF0F0C5B2284601F09AFE7A
:101C60004FF47A7094FBF0F100FB1144642094FB74
:101C7000F0F0C5B2284601F08DFE642094FBF0F12F
:101C800000FB11440A2094FBF0F0C5B2284601F095
:101C900081FE0A2094FBF0F100FB1144E0B201F058
:101CA00079FE0A2001F07CFD4E2001F073FE0A202F
:101CB00001F076FD652001F06DFE7CE0632001F00F
:101CC00069FE404603F0B6FB0446234894FBF0F05F
:101CD000C5B2284601F05EFE1F4894FBF0F100FB00
:101CE00011441E4894FBF0F0C5B2284601F052FEA4
:101CF0001A4894FBF0F100FB114442F2107094FB7F
:101D0000F0F0C5B2284601F045FE42F2107094FB97
:101D1000F0F100FB11444FF47A7094FBF0F0C5B27F
:101D2000284601F037FE4FF47A7094FBF0F100FB87
:101D30001144642094FBF0F0C5B2284601F02AFE5D
:101D4000642094FBF0F119E06C0500200050C347BB
:101D50000000C8428096980040420F00A086010013
:101D60004C6F6E6769747564653A252E356620255B
:101D700031632020200000001406002000FB1144E5
:101D80000A2094FBF0F0C5B2284601F003FE0A20B9
:101D900094FBF0F100FB1144E0B201F0FBFD0A20DE
:101DA00001F0FEFC4E2001F0F5FD0A2001F0F8FCE8
:101DB000652001F0EFFD0A49404603F079FA8046BC
:101DC000054603F0DBF90646064890F885003246E2
:101DD0000B4605A100900A48FEF762FABDE8F883B9
:101DE0000050C3476C0500204C61746974756465CC
:101DF0003A252E3566202531632020200000000082
:101E00001406002000BFFEE700BFFEE72DE9FC5FDF
:101E100007468A464FF00008CDF804A046A1019875
:101E2000FEF7EEFB0646F079303800F0FF0B032199
:101E3000304600F085F80546FF2D04D0701969463C
:101E400000F007FB78704FF0000970E03AA10198AC
:101E5000FEF7D6FB0646002460E0042000EB840079
:101E6000C1B2304600F06CF80546FF2D0AD070195B
:101E7000694600F0EEFAC1B208EB880207F13E00B5
:101E8000815400E04CE0052000EB8400C1B23046F4
:101E900000F056F80546FF2D0BD07019694600F08A
:101EA000D8FAC1B208EB880207F13E001044417035
:101EB00000E035E0062000EB8400C1B2304600F0BF
:101EC0003FF80546FF2D0BD07019694600F0C1FAA6
:101ED00081B208EB880207F13E001044418000E027
:101EE0001EE0072000EB8400C1B2304600F028F865
:101EF0000546FF2D0BD07019694600F0AAFAC1B251
:101F000008EB880207F13E001044017100E007E091
:101F100008F1010000F0FF08601CC4B2042C9CDB37
:101F200000BF701C019009F1010000F0FF09D945C4
:101F30008CDBBDE8FC9F0000244244475356000060
:101F40000246134610E010782A2805D01078202881
:101F500002DB10787A2801DDFF20704710782C28EA
:101F600001D1481EC1B2521C0029ECD1D01AC0B216
:101F7000F3E70000F8B505460F4616A13846FEF710
:101F80003FFB064606213046FFF7DAFF0446FF2CEA
:101F900005D03019694600F05CFA85F88B000721FE
:101FA0003046FFF7CDFF0446FF2C05D030196946B7
:101FB00000F04FFA85F88C0009213046FFF7C0FF8A
:101FC0000446FF2C05D03019694600F042FAC5F8E6
:101FD000A000F8BD24474E47474100002DE9F843D3
:101FE0000546884629A14046FEF70AFB064602211F
:101FF0003046FFF7A5FF0446FF2C05D0301969468F
:1020000000F027FA85F89900002713E0F81CC1B208
:102010003046FFF795FF0446FF2C08D0301969467B
:1020200000F017FAC1B205F18D00C15500E003E0E0
:10203000781CC7B20C2FE9DB00BF0F213046FFF739
:102040007FFF0446FF2C05D03019694600F001FAE5
:10205000A5F89A0010213046FFF772FF0446FF2CC6
:1020600005D03019694600F0F4F9A5F89C0011215B
:102070003046FFF765FF0446FF2C05D0301969464E
:1020800000F0E7F9A5F89E00BDE8F88324474E4725
:10209000534100002DE9F04F85B00446884683A1E6
:1020A0004046FEF7ADFA074601213846FFF748FFE4
:1020B0000546FF2D23D0781904A900F0CAF98246FD
:1020C0009DF810100A2000F0B9F9BAFBF0F642F2C0
:1020D0001070B6FBF0F0C1B27E2001556420B6FB53
:1020E000F0F06421B0FBF1F201FB12017F200155F9
:1020F0006420B6FBF0F100FB116180200155032143
:102100003846FFF71DFF0546FF2D45D0781904A975
:1021100000F09FF906469DF81000801CC1B20A200D
:1021200000F08CF9B6FBF0F044F8810F9DF8100038
:10213000801CC1B20A2000F081F9B6FBF0F100FB6F
:10214000116A504603F0B2F981469DF81000C0F1C3
:102150000500C1B20A2000F071F9009003F0A6F961
:102160008346494603F0EAF98246524903F0A0F853
:10217000052102900A2000F061F9216800FB01FAB4
:10218000504603F093F90190029903F023F803906D
:1021900003F06CF944F8810904213846FFF7D0FEBA
:1021A0000546FF2D02D0785D84F88500052138466C
:1021B000FFF7C6FE0546FF2D45D0781904A900F0AB
:1021C00048F906469DF81000801CC1B20A2000F0B4
:1021D00035F9B6FBF0F044F8860F9DF81000801C2E
:1021E000C1B20A2000F02AF9B6FBF0F100FB116A37
:1021F000504603F05BF981469DF81000C0F10500E0
:10220000C1B20A2000F01AF9009003F04FF983469A
:10221000494603F093F98246264903F049F805211F
:1022200002900A2000F00AF9216800FB01FA5046EA
:1022300003F03CF90190029902F0CCFF039003F007
:1022400015F944F8860906213846FFF779FE054658
:10225000FF2D02D0785D84F88A0009213846FFF707
:102260006FFE0546FF2D1ED0781904A900F0F1F885
:10227000064642F21070B6FBF0F0C1B27D20015567
:102280006420B6FBF0F06421B0FBF1F201FB120117
:102290007C2001556420B6FBF0F100FB116000F5D5
:1022A000FA60A4F87A0005B0BDE8F08F24474E52DA
:1022B0004D43000000007042F8B504460D4612A1DF
:1022C0002846FEF79DF9064607213046FFF738FEFF
:1022D0000746FF2F16D0F019694600F0BAF8A4F8A7
:1022E000A4009DF8000003280CDA9DF80000C0F15E
:1022F0000300C1B20A2000F0A1F8B4F8A4104843CA
:10230000A4F8A400F8BD000024474E56544700002E
:102310002DE9FC5F07468A464FF00008CDF804A07F
:1023200044A10198FEF76CF90646F079303800F0C8
:10233000FF0B03213046FFF703FE0546FF2D04D0B7
:102340007019694600F085F838704FF000096CE0AC
:1023500038A10198FEF754F9064600245CE00420F9
:1023600000EB8400C1B23046FFF7EAFD0546FF2DC1
:1023700009D07019694600F06CF8C1B208EB880208
:10238000B81C815400E049E0052000EB8400C1B294
:102390003046FFF7D5FD0546FF2D0AD07019694676
:1023A00000F057F8C1B208EB8802B81C1044417025
:1023B00000E033E0062000EB8400C1B23046FFF7B6
:1023C000BFFD0546FF2D0AD07019694600F041F89F
:1023D00081B208EB8802B81C1044418000E01DE087
:1023E000072000EB8400C1B23046FFF7A9FD054687
:1023F000FF2D0AD07019694600F02BF8C1B208EB26
:102400008802B81C1044017100E007E008F10100E7
:1024100000F0FF08601CC4B2042CA0DB00BF701CDD
:10242000019009F1010000F0FF09D94590DBBDE8FA
:10243000FC9F0000244750475356000010B5024649
:10244000012000E050430B00A1F10104E1B2F9D1F9
:1024500010BD2DE9F34F81B007463C4600200090A7
:10246000834681460026804628E020782D2802D128
:1024700048F00208641C20782C2802D020782A28F2
:1024800000D11CE020782E2803D148F00108641CFC
:1024900009E02078392802DC2078302803DA4FF070
:1024A000000900260BE008F0010010B1701CC6B254
:1024B00003E009F1010000F0FF09641CD5E700BF4B
:1024C00008F0020000B17F1C00250EE0A9F1010018
:1024D000401BC1B20A20FFF7B1FF795D3039009A85
:1024E00000FB01200090681CC5B24D45EEDB052EB7
:1024F00000DD05260298067000250EE0701E401BC8
:10250000C1B20A20FFF79AFF09F101012944795C61
:10251000303900FB01BB681CC5B2B542EEDB314669
:102520000A20FFF78BFF009901FB00BA08F00200B8
:1025300008B1CAF1000A5046BDE8FE8F704700009E
:1025400070B5002100230F22C47804B3154C246811
:1025500004F4E064C4F5E064210AC1F10403CA4054
:10256000447804FA03F184781440214309010E4CA5
:102570000678A155047804F01F050124AC400578C5
:102580006D11AD0005F1E025C5F8004109E00478C2
:1025900004F01F050124AC40044D0678761145F87F
:1025A000264070BD0CED00E000E400E080E100E0BA
:1025B00002490143024A1160704700000000FA0519
:1025C0000CED00E070B5002418E004F1B00000212B
:1025D00000F039FA0021084600F035FA00211020F9
:1025E00000F031FA002505E00121002000F02BFA6F
:1025F000681CC5B2802DF7DB601CC4B2082CE4DB7C
:1026000070BD00002DE9FF5F86B014461D464FF0F7
:10261000010A00200390049005904FF00109002664
:1026200000BF8346002213462046294602F076FB6F
:1026300009D285F00040CDE900402046019902F022
:10264000F9FA064604E02046294602F0F3FA064667
:10265000304602F04CFB22462B46CDE9000102F049
:1026600097FC074688460022554B3846414602F003
:1026700091FBCDE9000102F00DFB834607E009EB79
:1026800089004FEA40090AF1010000F0FF0A0A2020
:1026900096FBF0F090FBF9F00028F0D142F21070B8
:1026A00096FBF0F00A2190FBF1F201FB1200C0B2A0
:1026B0008DF80C004FF47A7096FBF0F090FBF1F27D
:1026C00001FB1200C0B28DF80D00642096FBF0F003
:1026D00090FBF1F201FB1200C0B28DF80E000A204F
:1026E00096FBF0F090FBF1F201FB1200C0B28DF806
:1026F0000F000A2096FBF0F100FB1160C0B28DF8CC
:1027000010002E208DF811004FF47A70BBFBF0F012
:102710000A21B0FBF1F201FB12008DF812006420D7
:10272000BBFBF0F0B0FBF1F201FB12008DF81300DF
:102730000A20BBFBF0F0B0FBF1F201FB12008DF8B8
:1027400014000A20BBFBF0F100FB11B08DF815005E
:1027500000211498801D03AA1154894608E003A89B
:1027600010F80900303003A901F8090009F1010946
:10277000B9F10A0FF3DB002213462046294602F086
:10278000CDFA08D20AF1010000F0FF0A2D20CAF1AB
:10279000050103AA50542E208DF811000021149831
:1027A000801D03AA1154CAF1050003A942180C2385
:1027B000DDE9061000F02CF90AB0BDE8F09F00003A
:1027C0000088C34010B501210748FFF79FF8022198
:1027D0000548FFF79BF802210348FFF795F8012110
:1027E0000148FFF791F810BD000C014010B5012120
:1027F0000548FFF78BF802210348FFF785F802210F
:102800000148FFF783F810BD000C014010B501210D
:102810000348FFF77BF801210148FFF775F810BD69
:10282000000C014008B50121092000F0A1F90121A7
:102830004248FFF721F80320ADF8000010208DF882
:10284000030003208DF8020069463D48FEF789FF2A
:1028500003213B48FFF75AF84FF4487000F0A0FFFF
:102860000021AE2000F0EFF80021084600F0EBF860
:102870000021102000F0E7F80021402000F0E3F8EC
:102880000021B02000F0DFF80021812000F0DBF80B
:102890000021FF2000F0D7F80021A12000F0D3F89C
:1028A0000021A62000F0CFF80021A82000F0CBF8EE
:1028B00000213F2000F0C7F80021C82000F0C3F835
:1028C0000021D32000F0BFF80021084600F0BBF83B
:1028D0000021D52000F0B7F80021802000F0B3F8E7
:1028E0000021D82000F0AFF80021052000F0ABF85F
:1028F0000021D92000F0A7F80021F12000F0A3F872
:102900000021DA2000F09FF80021122000F09BF84F
:102910000021DB2000F097F80021302000F093F830
:1029200000218D2000F08FF80021142000F08BF89A
:102930000021AF2000F087F808BD00000002300041
:10294000000C014070B504460D4605F1B0000021B1
:1029500000F079F8102141EA1410002100F073F81A
:1029600004F00F00002100F06EF870BD2DE9F04773
:1029700007460E469046994600250024A8F12000FF
:10298000C5B27F2F02DD0027B01CC6B2B9F1100F0F
:1029900024D131463846FFF7D5FF002408E004EB88
:1029A0000511194A505C012100F04DF8601CC4B2B9
:1029B000082CF4DB701CC1B23846FFF7C3FF0024BB
:1029C00009E004EB051108310F4A505C012100F0C9
:1029D0003AF8601CC4B2082CF3DB12E031463846EA
:1029E000FFF7B0FF00240AE005EB4501074A02EBC0
:1029F0004101085D012100F026F8601CC4B2062CDC
:102A0000F2DBBDE8F0870000745A00084C5800085B
:102A10002DE9F04105460E4614461F460EE0227889
:102A20003B4631462846FFF7A1FF05F10800C5B235
:102A3000782D02DD0025B01CC6B2641C2078002869
:102A4000EDD1BDE8F08170B504460D461DB1E0B290
:102A500000F046F802E0E0B200F02CF870BD000093
:102A60002DE9F04105462C4601211148FEF74CFFA7
:102A7000002619E0274607F08007802F04D10221A5
:102A80000B48FEF743FF03E002210948FEF73CFF35
:102A90006006040E01210648FEF738FF01210448B4
:102AA000FEF732FF701CC6B2082EE3DBBDE8F081F2
:102AB000000C014010B50446FFF784FE7820FFF7B4
:102AC000CFFFFFF7A3FE0020FFF7CAFFFFF79EFE30
:102AD0002046FFF7C5FFFFF799FEFFF787FE10BD01
:102AE00010B50446FFF76EFE7820FFF7B9FFFFF739
:102AF0008DFE4020FFF7B4FFFFF788FE2046FFF76A
:102B0000AFFFFFF783FEFFF771FE10BD70470000B7
:102B100029B1064A52690243044B5A6104E0034A50
:102B200052698243014B5A61704700000010024015
:102B300029B1064AD2690243044BDA6104E0034A30
:102B4000D2698243014BDA617047000000100240F5
:102B500029B1064A12690243044B1A6104E0034A90
:102B600012698243014B1A61704700000010024055
:102B700029B1064A92690243044B9A6104E0034A70
:102B800092698243014B9A61704700000010024035
:102B900029B1064AD2680243044BDA6004E0034AD2
:102BA000D2688243014BDA60704700000010024097
:102BB00030B500210022002400232D4D6D6805F062
:102BC0000C0121B1042905D0082923D105E0294DA4
:102BD000056022E0274D05601FE0254D6D6805F476
:102BE0007012234D6D6805F48034022505EB924286
:102BF0001CB9214D554305600BE01D4D6D6805F472
:102C000000351DB11C4D5543056002E0194D55437B
:102C1000056002E0174D056000BF00BF144D6D68F0
:102C200005F0F0010909154D6B5C0568DD40456054
:102C30000F4D6D6805F4E061090A104D6B5C456845
:102C4000DD4085600A4D6D6805F46051C90A0B4D81
:102C50006B5C4568DD40C560054D6D6805F440411D
:102C6000890B074D6B5CC568B5FBF3F5056130BD9D
:102C70000010024000127A0000093D001E000020F2
:102C80002E000020704710B500F002F810BD0000C3
:102C90000CB50020019000903348006840F480306B
:102CA0003149086000BF3048006800F400300090EF
:102CB0000198401C0190009818B90198B0F5A06FD8
:102CC000F1D12948006800F4003010B101200090D3
:102CD00001E0002000900098012843D123480068BB
:102CE00040F01000214908600846006820F0030009
:102CF00008600846006840F0020008601A48406812
:102D0000194948600846406848600846406840F4F1
:102D1000806048600846406820F47C10486008469F
:102D2000406840F4E81048600846006840F0807051
:102D3000086000BF0C48006800F000700028F9D05F
:102D40000948406820F00300074948600846406889
:102D500040F00200486000BF0348406800F00C00EB
:102D60000828F9D10CBD00000010024000200240EC
:102D700070B50025002604E0681C85B2052000F02F
:102D80000FFD1448008800F4004008B9642DF3DBFF
:102D9000642D19DA0F480088C0F30E0500240CE0FA
:102DA0000D48005D832800D109E00B48005D8428B0
:102DB00001D1032603E0601C84B2AC42F0DB00BF0B
:102DC000AC4202D1022600E0012600200149088021
:102DD000304670BD32000020100B002070B5054653
:102DE000144C4AF2A01020804FF4806060800520CF
:102DF000207100206071A5710120E0712079617956
:102E00004840A1794840E1794840207240F60D20C1
:102E1000A4F809000B21204600F072F8C82000F049
:102E2000BFFC054951F8250000F080FAFFF7A0FF2C
:102E300070BD0000100700202858000870B5054636
:102E40000D4C4AF2A01020804FF4407060800E209C
:102E5000207165710120A071207961794840A179C4
:102E60004840E07140F60D2020810A21204600F004
:102E700047F8FFF77DFF70BD1007002070B50546CD
:102E80002E461E4C4FF47F4000EA152040EA1560A4
:102E90004FF47F0101EA052108434FF07F4101EA29
:102EA000056140EA01064AF2A01020804FF4E0607C
:102EB00060806520207101206071C4F80660A072F6
:102EC000207961794840D4F8061080EA1160C1F396
:102ED00007414840E188C1F307214840A1794840B3
:102EE000A17A4840E07240F60D20A0810E212046D4
:102EF00000F006F8FFF73CFF70BD0000100700204F
:102F000010B5024600200CE000BF074B1B8803F001
:102F10004003002BF9D0135C034C241D2380431C79
:102F200098B28842F0DB10BD00440040042808D16C
:102F30004FF0E021096941F004014FF0E0221161F6
:102F400007E04FF0E021096921F004014FF0E02291
:102F5000116170477047000010B51348006840F0D9
:102F600001001149086008464068104908400E49B0
:102F70004860084600680E4908400B49086008464A
:102F8000006820F4802008600846406820F4FE00B5
:102F900048604FF41F008860FFF775FE4FF0006037
:102FA0000449086010BD0000001002400000FFF856
:102FB000FFFFF6FE08ED00E010B54FF08040008AFC
:102FC00000F0010048B109490869804700204FF02E
:102FD000804188844FF47A7088854FF08040008A61
:102FE00020F001004FF08041088210BD78000020E1
:102FF00010B50121084800F062F860B10748008868
:1030000040F40040054908800121034800F048F8D9
:10301000002000F031F810BD000800403200002010
:103020007FB505460C4601210420FFF781FDADF870
:103030000450ADF800400020ADF80600ADF80200E5
:1030400069460C4800F058F801221146094800F082
:1030500047F81E208DF80C0001208DF80D0002208D
:103060008DF80E0001208DF80F0003A8FFF768FA15
:103070007FBD00000008004010B5044644B10021A7
:10308000064800F036F80121044800F00CF803E08F
:103090000021024800F007F810BD000000080040C1
:1030A000CA430282704721B1028842F001020280C5
:1030B00004E002884FF6FE731A400280704730B574
:1030C0000246002000230024158A05EA01039589A1
:1030D00005EA010413B10CB1012000E0002030BD6D
:1030E0001AB183890B43838102E083898B438381F7
:1030F0007047818470470000002202881D4B98426F
:103100000ED01D4B98420BD0B0F1804F08D01B4B16
:10311000984205D01A4B984202D01A4B984204D1DB
:103120004FF68F731A404B881A43174B984207D0BB
:10313000164B984204D04FF6FF431A40CB881A43EF
:1031400002808B8883850B8803850A4B98420BD0BD
:10315000094B984208D00E4B984205D00D4B98422F
:1031600002D00D4B984201D10B7A03860123838252
:1031700070470000002C0140003401400004004072
:1031800000080040000C0040001000400014004007
:103190000040014000440140004801407FB5054621
:1031A0000C4601210846FFF7C3FCADF80850ADF806
:1031B00004400020ADF80A00ADF8060001A94FF068
:1031C0008040FFF799FF012241218807FFF788FF20
:1031D0001C208DF8000003208DF801008DF80200FE
:1031E00001208DF803006846FFF7AAF9012188073E
:1031F000FFF759FF7FBD70B58CB006460C461546EB
:1032000001210846FFF784FC3046FEF7E5F90194FA
:1032100002951020039000200490059080200690D5
:1032200000200790089009904FF480500A900020E9
:103230000B9001A93046FEF775FA0CB070BD000086
:1032400010B540F225511D4800F0A6F910B31B48F7
:1032500000F05EFAC4B21A48008800F40040C8B911
:103260001748008800F4804060B10A2C03D0002089
:103270001349088020E01248008840F400401049BB
:10328000088019E00D2C06D10D48008840F48040DC
:103290000B49088010E00A480088C0F30D00094976
:1032A0000C5407480088401C0549088008460088DF
:1032B000C72801DD0020088010BD00000038014053
:1032C0001C0000204606002010B540F2255113488E
:1032D00000F062F908B3114800F01AFAC4B21048BD
:1032E0000088B0F5806F12DA00210E48FFF701FF69
:1032F0000B48008810B90120FFF7BEFE084801887E
:103300000088401C064A10800748445405E00448E1
:10331000008840F400400249088010BD004400408D
:103320003200002000080040100B002010B586B0CD
:10333000044601210420FFF71BFC01214804FFF78C
:10334000F7FB2E4800F0DAF80420ADF81000032057
:103350008DF8120018208DF8130004A92848FEF7F4
:1033600000FA0820ADF8100004208DF8130004A91D
:103370002348FEF7F6F900940020ADF80400ADF8FC
:103380000600ADF80800ADF80C000C20ADF80A00FE
:1033900069461A4800F050F901228021174800F0D0
:1033A000A3F8184A1549091D1748FFF724FF012102
:1033B000124800F08DF8012240F225510F4800F02C
:1033C00015F926208DF8140002208DF81500032031
:1033D0008DF8160001208DF8170005A8FFF7B0F84A
:1033E00041F61F4140F2E730FFF71AFE002007497F
:1033F0000880FFF741FE06B010BD00000044004009
:103400000008014010070020800002403200002028
:1034100010B540F22551024800F0BEF810BD000082
:103420000048004000B587B001210820FFF7A0FB4D
:1034300001218804FFF77CFB18208DF81B004FF456
:103440008060ADF8180001208DF81A0006A91E480A
:10345000FEF787F904208DF81B004002ADF8180034
:1034600001208DF81A0006A91748FEF77AF94FF4E3
:10347000165002900020ADF814000C20ADF8120098
:103480000020ADF81000ADF80E00ADF80C0002A958
:103490000E4800F0D1F801210C4800F019F8012283
:1034A00040F22551094800F0A1F827208DF80400CA
:1034B00001208DF807008DF805008DF8060001A8A1
:1034C000FFF73EF807B000BD000C01400048004087
:1034D00021B1828942F40052828104E082894DF652
:1034E000FF731A40828170471AB1838A0B4383822B
:1034F00002E0838A8B4383827047000010B5044644
:103500002048844209D101218803FFF741FB0021B3
:103510004FF48040FFF73CFB32E01B48844209D166
:1035200001214804FFF714FB00214FF40030FFF79E
:103530000FFB25E01548844209D101218804FFF7DB
:1035400007FB00214FF48020FFF702FB18E0104832
:10355000844209D10121C804FFF7FAFA00214FF48F
:103560000020FFF7F5FA0BE00A48844208D1012158
:103570000805FFF7EDFA00214FF48010FFF7E8FA95
:1035800010BD0000003801400044004000480040E9
:10359000004C00400050004070B50246002400235B
:1035A0000025002040F66A16B14200D100BFC1F3E9
:1035B000421501F01F03012606FA03F3012D02D183
:1035C0009689334006E0022D02D1168A334001E08D
:1035D000968A33400C12012606FA04F41688344009
:1035E00013B10CB1012000E0002070BDF0B503461E
:1035F000002400260025002040F66A17B94200D1B9
:1036000000BF1846C1F3421401F01F06012707FA54
:1036100006F5012C01D10C3004E0022C01D1103050
:1036200000E014301AB107682F43076002E0076812
:10363000AF430760F0BD00002DE9F04786B00546B6
:103640000E460024A24600BFA1460027B08900B163
:1036500000BF2F462C8A4CF6FF700440F0880443CC
:103660002C82AC894EF6F3100440B08831890843AF
:10367000718908430443AC81AC8A4FF6FF40044093
:10368000B0890443AC8201A8FFF792FA1F48874231
:1036900002D1DDF810A001E0DDF80CA0A88900F44B
:1036A000004040B10AEBCA0000EB0A103168490043
:1036B000B0FBF1F807E00AEBCA0000EB0A10316832
:1036C0008900B0FBF1F86420B8FBF0F00401200998
:1036D000642101FB1089A88900F4004040B1322028
:1036E00000EBC900B0FBF1F000F00700044308E074
:1036F000322000EB09106421B0FBF1F000F00F0064
:1037000004432C8106B0BDE8F0870000003801407A
:1037100001468888C0F30800704700BFFEE74900F3
:1037200050EAC12018BF04204A0D18BF40F0010024
:1037300040F2FF72B2EB515F08BF40F00200012877
:1037400008BF0520704730380A2801D20120704791
:1037500000207047014600BF7047000010B56FF0B1
:103760000400FFF7E3FB0A4800680A49B0FBF1F0E8
:10377000094908700846007800EB4001C1EBC01011
:103780004FF6FF7101EAC0000449088010BD000037
:103790000000002000127A00140000201600002013
:1037A0000146114A12884A434FF0E0235A61002231
:1037B0009A611A46126942F001021A6100BF4FF085
:1037C000E022106900F001021AB100F48032002AF0
:1037D000F5D04FF0E022126922F001024FF0E02311
:1037E0001A6100229A6170471600002000BF054A46
:1037F000128802F04002002AF9D0C2B2014B1B1D10
:103800001A80704700380140FF260027FFF7A6FF07
:103810004FF4A060FEF7CCFE4FF4E13000F06AF800
:103820004FF41640FFF782FDFEF7FCFFFEF7CAFEDD
:10383000FFF7F8FD25484168482088470520FFF735
:10384000FDFAC8B100BF4FF41650FFF76FFD03201B
:10385000FFF7C4FA4FF41640FFF768FD1C48FFF766
:103860000DFB06460520FFF7E9FA08B1002EEAD164
:103870004FF4FA70FFF794FF26E00120FFF790FF66
:10388000FEF762F81348008800F40040E0B11148E8
:103890000088C0F30E05002405E00F48005D0F49C5
:1038A0000855601C84B2AC42F7DB0020094908804F
:1038B0000A4908550A48FEF72BF8FEF745F81FB1EC
:1038C000064908A0FCF7E0FCD7E7000078000020DC
:1038D000A086010032000020100B00206C010020A7
:1038E0006C0500200D0A25730D0A000001460868CA
:1038F0007047000010B586B00446012144F2040070
:10390000FFF736F94FF40070ADF8140003208DF87E
:10391000160018208DF8170005A91C48FDF721FF97
:103920004FF48060ADF8140004208DF8170005A94D
:103930001648FDF716FF25208DF8000003208DF8AE
:1039400001008DF8020001208DF803006846FEF7A3
:10395000F7FD01940020ADF80800ADF80A00ADF8BD
:103960000C00ADF810000C20ADF80E0001A90848BD
:10397000FFF762FE012240F225510548FFF736FEAF
:1039800001210348FFF7A4FD06B010BD0008014067
:10399000003801400549088000BF0449091F098813
:1039A00001F040010029F8D07047000004480040B1
:1039B00030B595B0054613AB12AA09A9284600F008
:1039C0003BFA044614B1204615B030BD00201490D7
:1039D00026E0224909689DF8502001EBC20113AB93
:1039E00011AA486801A900F027FA04460CB1204644
:1039F000EAE709A901A800F0B7FC60B99DF8440006
:103A00009DF84810884201DD0220DDE79DF8500056
:103A1000124988750AE09DF85000401CC0B214900D
:103A20000E48007D9DF850108842D2DC00BF0B4844
:103A3000007D9DF85010884201D10420C4E714A9EC
:103A4000284600F0D9FA04460CB12046BCE79DF8A0
:103A50005000024948750020B6E7000078000020B9
:103A60002DE9F0419AB000269C48847D007DA0425B
:103A700002DC1AB0BDE8F0819849096801EBC40185
:103A800006AB07AA486808A900F0D6F908A994A0CF
:103A9000FCF7FAFB002544E09048008B0121A94087
:103AA0000840D8B1222190A0FCF7EEFB284600F098
:103AB00029FB8A492431471839468CA0FCF7E4FBDE
:103AC000222189A0FCF7E0FB284600F01BFB83497C
:103AD0002431084410A941F8250018E0284600F0D8
:103AE00011FB7E492431085810A941F825007B4874
:103AF000C07D30B910A850F825107DA0FCF7C4FB9C
:103B000005E010A850F825107AA0FCF7BDFB9DF841
:103B10001C00401EA84202D078A0FCF7B5FB681C30
:103B2000C5B29DF81C008542B6DB75A0FCF7ACFB66
:103B300000F038FB6948407D0B280DD2DFE800F02B
:103B4000060D151E27323F4E5F72870063490968D4
:103B500051F834008047064690E0604A126852F8F7
:103B6000341010988847064688E05C4B1B6853F871
:103B70003420DDE91001904706467FE0574F3F684B
:103B800057F8343010A807C89847064676E0DFF8A3
:103B90004CC1DCF800C05CF8347010A80FC8B847FE
:103BA00006466BE01498DFF834C10090DCF800C0E2
:103BB0005CF8347010A80FC8B84706465EE0DDE92F
:103BC0001401DFF818C1CDE90001DCF800C05CF891
:103BD000347010A80FC8B84706464FE0DDE914124C
:103BE0001698DFF8F8C0CDE900120290DCF800C0AA
:103BF0005CF8347010A80FC8B84706463EE0DDE90F
:103C00001423DDE91610DFF8D4C0CDE90023CDE997
:103C10000210DCF800C05CF8347010A80FC8B84778
:103C200006462BE0DDE9163218991598CDE90232E7
:103C3000049101901498DFF8A4C00090DCF800C053
:103C40005CF8347010A80FC8B847064616E0DDE9E6
:103C50001623DDE91810CDE90223CDE90410DDE9D2
:103C60001401DFF878C0CDE90001DCF800C05CF891
:103C7000347010A80FC8B847064600BF00BF00F058
:103C800051FA9DF8180001280CD11448C07D20B9C4
:103C900031461CA0FCF7F8FA07E031461BA0FCF700
:103CA000F3FA02E018A0FCF7EFFA0C4890F8EC00E9
:103CB00088B10A48D0F8F0000A21B0FBF1F201FB0C
:103CC00012070648D0F8F000B0FBF1F83A4641463A
:103CD00011A0FCF7D9FA00BFCBE600007800002065
:103CE0000D0A2573280000002563000025730000DD
:103CF000256C750030582558000000002C0000008D
:103D0000290000003D256C753B0D0A003D3058250B
:103D1000583B0D0A0000000046756E6374696F6EB3
:103D20002052756E2054696D653A25642E253164E4
:103D30006D730D0A00000000F0B503461546002023
:103D400000220026002455E01F782C2F01D104B951
:103D500001221F78292F01D01F780FB904B94AE03A
:103D6000002E34D11F78302F02DB1F78392F11DD60
:103D70001F78612F02DB1F78662F0BDD1F78412F24
:103D800002DB1F78462F05DD1F78582F02D01F78E1
:103D9000782F0CD102B12EE01F78612F03DB1F7842
:103DA000203F0F7001E01F780F70491C1FE01F7843
:103DB000222F04D102B11EE00126012417E01F7852
:103DC000202F14D01F782C2F11D0FF2613E01F783E
:103DD000222F00D1002402B10DE044B11F785C2FE6
:103DE00002D15B1C471CF8B21F780F70491C471C9E
:103DF000F8B25B1CA8E700BF00270F702E70F0BD63
:103E000010B50446002010700BE020780870641C88
:103E1000491C1078401C10701078984201DB01207A
:103E200010BD2078202802D020780028EDD1002075
:103E3000087000BFF4E700002DE9FF4F85B0804611
:103E400089460027002004900390012002904FF043
:103E5000000B002544461DE02078202816D005F0F0
:103E60007F00052812DA0DB945F0800505F07F00C6
:103E7000042803D120782A2800D00EE0207805F00D
:103E80007F010DF80100681CC5B202E0852D00D14C
:103E900003E0641C20780028DED100BF8DB1002033
:103EA00005F07F010DF8010051A1684600F05CFAB1
:103EB00018B900210898017002E0012108980170EA
:103EC00000254FF0000A444614E0641C0AF101008A
:103ED00000F0FF0A2078202802D020782A2809D173
:103EE000204600F0D1F90646282E03D02A2E01D014
:103EF000CDF810A02078282802D020780028E4D11E
:103F00004446049810B10498401C04444FF0000A41
:103F1000002654E0207810B94FF0010A50E02078D4
:103F2000282803D116B9781CC7B213E020782928B5
:103F300008D13EB917B1781EC7B201E04FF0010AAF
:103F400047B93DE02078222804D10EB9012000E0D5
:103F50000020064647B9207820282FD0207889F8FD
:103F6000000009F1010929E020782C2804D1012062
:103F70000290681CC5B214E02078202811D0207867
:103F800028280ED04DB9BBF1050F06DA20780DF8C0
:103F90000B000BF1010000F0FF0B0298401CC0B2B7
:103FA0000290012F0AD10298022807D10298401CE2
:103FB000C0B202900398401CC0B20390641CA9E7F1
:103FC00000BF0398012809D100200DF80B0008A1BB
:103FD000684600F0C9F908B90020039007990398D2
:103FE0000870002089F80000504609B0BDE8F08F45
:103FF000766F6964000000002DE9F043B5B0054616
:104000000F460024002604E000213D488155701C25
:10401000C6B20A2EF8DB06E06D1C287818B901201C
:1040200035B0BDE8F08328782828F5D16D1C61E013
:1040300034AA69462846FFF77FFE064635449DF8B8
:10404000D00020B1012827D0FF284CD149E09DF8AD
:10405000000000B333A9684600F021F906460EB10E
:104060000220DDE7204600F04DF825490A31339A59
:104070000A50A1F12400008B0121A140884320496E
:104080001A39088304211E480155601CC4B20A2C49
:1040900001DD0320C4E726E0684600F081F9401CFA
:1040A00000F0FF08204600F02DF815490A3100EB1A
:1040B00001094946684600F068F911481A38018B31
:1040C0000120A040014388B20D491A3908830C48E9
:1040D00000F80480601CC4B20A2C01DD03209FE7B5
:1040E00001E002209CE700BF2878292801D0287829
:1040F00000B900E09CE700BF3C70002090E70000A2
:104100009200002002460020002105E0044B5B5C89
:104110000344D8B24B1CD9B29142F7DB7047000080
:10412000920000204FF08040008A00F0010040B172
:104130000B48D0F8F0004FF6FF7108440849C1F869
:10414000F0000748D0F8F0004FF08041898C084417
:104150000349C1F8F0000846D0F8F00070470000AD
:104160007800002010B5044604EBC40000EB0410F6
:104170000122C2EB800081B24FF47A70FFF70EF893
:1041800001200149C87510BD7800002010B5024615
:10419000012000E050430B00A1F10104E1B2F9D18C
:1041A00010BD00004FF08040008A20F001004FF069
:1041B000804108824FF6FF7088850020888402497C
:1041C000C1F8F000704700007800002070B51D486D
:1041D000008800F40040002833D01A4805780020F9
:1041E00019494855194881681748884704461CB939
:1041F0001649C868804721E0134800F0DDF80546FD
:10420000012D00D02C46CCB1012C06D0022C08D0B8
:10421000032C0AD0042C10D10BE00DA0FCF734F8CD
:104220000BE00EA0FCF730F807E00FA0FCF72CF82D
:1042300003E010A0FCF728F800BF00BF00200149F0
:10424000088070BD1C000020460600207800002079
:10425000BAAFCAFDB4EDCEF3210D0A00B2CECAFD4D
:10426000B4EDCEF3210D0A00B2CECAFDCCABB6E060
:10427000210D0A00CEB4D5D2B5BDC6A5C5E4B5C4DE
:10428000BAAFCAFD210D0A000146491C00E0491CD5
:104290000878202801D10029F9D1087870472DE944
:1042A000F04307460E4600254FF00A083C46002022
:1042B00030601FE02078392802DC207830280ADAC4
:1042C0002078462802DC2078412804DA2078582813
:1042D00009D1012D07D12078412801DB4FF01008CA
:1042E000681CC5B205E0207800B904E00120BDE8F3
:1042F000F083641CDEE700BF3C46B8F1100F0FD11D
:10430000032D01DA0220F2E72078302806D1607808
:10431000582803D1A41CA81EC5B204E00320E6E778
:104320000DB90420E3E71BE00DB1681EC5B220788B
:10433000392806DC2078302803DB2078A0F130090A
:1043400002E02078A0F1370929464046FFF71EFF1A
:10435000316809FB00103060641C207800B900E06F
:10436000E2E700BF0020C2E702460AE010780B78BF
:10437000984201D001207047107800B902E0521C29
:10438000491CF3E700BF0020F5E706E002780A7059
:10439000027802B902E0401C491CF7E700BF7047F1
:1043A0000146002005E00A7802B903E0421CD0B2C1
:1043B000491CF8E700BF704710B58CB004461E23B7
:1043C0000BAA03A92046FFF71BFD0090009810B12F
:1043D00001200CB010BD9DF82C00044400200B906F
:1043E0000EE040489DF82C2050F8221003A8FFF75B
:1043F000BBFF00B908E09DF82C00401CC0B20B9038
:104400009DF82C000728ECD300BF9DF82C0007284E
:1044100063D2DFE800F004053C5E6564630000BF22
:1044200031A0FBF731FF31A0FBF72EFF3FA0FBF7D8
:104430002BFF4EA0FBF728FF5CA0FBF725FF6BA02E
:10444000FBF722FF79A0FBF71FFF86A0FBF71CFFFD
:104450008BA0FBF719FF90A0FBF716FF94A0FBF7CA
:1044600013FF99A0FBF710FF9EA0FBF70DFFA4A080
:10447000FBF70AFFB0A0FBF707FFBDA0FBF704FFA7
:10448000C8A0FBF701FFD4A0FBF7FEFE9AE216A03E
:10449000FBF7FAFEE0A0FBF7F7FE00200B900EE022
:1044A000ED4800689DF82C2000EBC2004168EBA0AD
:1044B000FBF7EAFE9DF82C00401CC0B20B90E648CA
:1044C000007D9DF82C108842EADC07A0FBF7DCFE9B
:1044D00078E205A0FBF7D8FEC4E171E245E219E2FB
:1044E000ECE10000340000200D0A00002D2D2D2DE0
:1044F0002D2D2D2D2D2D2D2D2D2D2D2D2D2D2D2DEC
:104500002D2D2D2D55534D4152542056332E312DE6
:104510002D2D2D2D2D2D2D2D2D2D2D2D2D2D2D2DCB
:104520002D2D2D2D2D2D2D200D0A00002020202099
:1045300055534D415254CAC7D3C9414C49454E54B5
:10454000454BBFAAB7A2B5C4D2BBB8F6C1E9C7C92B
:10455000B5C4B4AEBFDAB5F7CAD4BBA5BDBBD7E905
:10456000BCFE2CCDA8B9FD200D0A0000CBFC2CC44C
:10457000E3BFC9D2D4CDA8B9FDB4AEBFDAD6FACA6A
:10458000D6B5F7D3C3B3CCD0F2C0EFC3E6B5C4C839
:10459000CEBACEBAAFCAFD2CB2A2D6B4D0D02ED2EB
:1045A000F2B4CB2CC4E3BFC90D0A0000D2D4CBE6D1
:1045B000D2E2B8FCB8C4BAAFCAFDB5C4CAE4C8EB0D
:1045C000B2CECAFD28D6A7B3D6CAFDD7D628313079
:1045D0002F3136BDF8D6C629A1A2D7D6B7FBB4AEC7
:1045E000A1A2BAAFCAFDC8EB0D0A0000BFDAB5D868
:1045F000D6B7B5C8D7F7CEAAB2CECAFD292CB5A575
:10460000B8F6BAAFCAFDD7EEB6E0D6A7B3D631300A
:10461000B8F6CAE4C8EBB2CECAFD2CB2A2D6A7B394
:10462000D6BAAFCAFDB7B5200D0A0000BBD8D6B5C3
:10463000CFD4CABE2ED0C2D4F6B2CECAFDCFD4CA11
:10464000BEBDF8D6C6C9E8D6C3B9A6C4DC2CD0C254
:10465000D4F6BDF8D6C6D7AABBBBB9A6C4DC2E0D0E
:104660000A000000BCBCCAF5D6A7B3D63A77777764
:104670002E6F70656E6564762E636F6D0D0A000097
:1046800055534D415254D3D037B8F6CFB5CDB3C3FF
:10469000FCC1EE3A0D0A00003F3A202020202020E5
:1046A000BBF1C8A1B0EFD6FAD0C5CFA20D0A000069
:1046B00068656C703A202020BBF1C8A1B0EFD6FA33
:1046C000D0C5CFA20D0A00006C6973743A20202077
:1046D000BFC9D3C3B5C4BAAFCAFDC1D0B1ED0D0ACD
:1046E0000A00000069643A2020202020BFC9D3C3FB
:1046F000BAAFCAFDB5C44944C1D0B1ED0D0A0A0034
:104700006865783A20202020B2CECAFD3136BDF847
:10471000D6C6CFD4CABE2CBAF3B8FABFD5B8F12BDF
:10472000CAFDD7D6BCB4D6B4D0D0BDF8D6C6D7AAA9
:10473000BBBB0D0A0A0000006465633A20202020FC
:10474000B2CECAFD3130BDF8D6C6CFD4CABE2CBA5F
:10475000F3B8FABFD5B8F12BCAFDD7D6BCB4D6B4DE
:10476000D0D0BDF8D6C6D7AABBBB0D0A0A00000040
:1047700072756E74696D653A312CBFAAC6F4BAAF12
:10478000CAFDD4CBD0D0BCC6CAB13B302CB9D8B14D
:10479000D5BAAFCAFDD4CBD0D0BCC6CAB13B0D0A86
:1047A0000A000000C7EBB0B4D5D5B3CCD0F2B1E06D
:1047B000D0B4B8F1CABDCAE4C8EBBAAFCAFDC3FBF6
:1047C000BCB0B2CECAFDB2A2D2D4BBD8B3B5BCFC89
:1047D000BDE1CAF82E0D0A002D2D2D2D2D2D2D2DCC
:1047E0002D2D2D2D2D2D2D2D2D2D2D2D2D2D2D2DF9
:1047F0002D2D414C49454E54454B2D2D2D2D2D2D04
:104800002D2D2D2D2D2D2D2D2D2D2D2D2D2D2D2DD8
:104810002D2D2D200D0A00002D2D2D2D2D2D2D2D72
:104820002D2D2D2D2D2D2D2D2D2D2D2D2D2D2D2DB8
:104830002DBAAFCAFDC7E5B5A52D2D2D2D2D2D2DDA
:104840002D2D2D2D2D2D2D2D2D2D2D2D2D2D2D2D98
:104850002D2D2D2D200D0A007800002025730D0A26
:104860000000000059A0FBF70FFD00200B901AE09C
:10487000664909689DF82C2001EBC20101AB02AA30
:10488000486803A9FFF7D8FA604800689DF82C1023
:1048900050F8312003A95EA0FBF7F6FC9DF82C0030
:1048A000401CC0B20B905948007D9DF82C108842E6
:1048B000DEDCAFF2CC30FBF7E7FC83E0AFF2D830C0
:1048C000FBF7E2FC0BAA03A92046FFF735FA9DF897
:1048D0002C00C8B9694603A8FFF7E1FC0B909DF8CE
:1048E0002C0020B94FA00099FBF7CEFC0EE09DF8FC
:1048F0002C00042801D002206BE54DA0FBF7C4FC7E
:1049000001204249C87501E0022062E547A0FBF79B
:10491000BBFC57E045A0FBF7B7FC0BAA03A9204658
:10492000FFF70AFA9DF82C00C8B9694603A8FFF7FB
:10493000B6FC0B909DF82C0020B942A00099FBF723
:10494000A3FC0EE09DF82C00042801D0022040E5D5
:104950003FA0FBF799FC00202C49C87501E002201C
:1049600037E532A0FBF790FC2CE030A0FBF78CFC85
:104970000BAA03A92046FFF7DFF99DF82C00C8B960
:10498000694603A8FFF78BFC0B909DF82C0078B9C3
:104990001E49009881F8EC00084690F8EC0018B128
:1049A00030A0FBF771FC07E035A0FBF76DFC03E0DE
:1049B00002200EE502200CE51CA0FBF765FC01E0DF
:1049C000012006E500BF002003E500002D2D2D2D60
:1049D0002D2D2D2D2D2D2D2D2D2D2D2D2D2D2D2D07
:1049E0002D2D2D2D2DBAAFCAFD204944202D2D2D62
:1049F0002D2D2D2D2D2D2D2D2D2D2D2D2D2D2D2DE7
:104A00002D2D2D2D2D2D2D2D200D0A00780000206F
:104A100025732069642069733A0D0A3058253038AF
:104A2000580D0A004845583A305825580D0A0000DC
:104A30003136BDF8D6C6B2CECAFDCFD4CABE210D1E
:104A40000A0000004445433A256C750D0A00000039
:104A50003130BDF8D6C6B2CECAFDCFD4CABE210D04
:104A60000A00000052756E2054696D652043616C28
:104A700063756C6174696F6E204F4E0D0A00000003
:104A800052756E2054696D652043616C63756C616D
:104A900074696F6E204F46460D0A00000160704732
:104AA00010B500290AD00878002807D005487844B6
:104AB000FCF794F9002801D0002010BD024878448A
:104AC00010BD0000621700005A17000010B591EAEF
:104AD000030F48BF83F0004300F16E82841A71EB2C
:104AE000030C05D2121943EB0C03001B61EB0C0104
:104AF000DFF824E14FEA1154A4EB135C1EEA430FE4
:104B000018BF9EEA445F73D023EA0E03DCF1200E47
:104B100021EA045143F4801332D322FA0CFE10EB45
:104B20000E0023FA0CFE41EB0E01CCF1200E03FA2D
:104B30000EFE10EB0E0051F10001B1F5801FCCF11B
:104B4000200E32D201EB045112FA0EF2BDE81040F1
:104B500058BF7047401C38BF5FEA420218BF704719
:104B6000002814BF20F0010041F100014FEA410389
:104B700013F5001F38BF7047A1F1C04100F002BA21
:104B8000012A43EB0302ACF1200CDCF11F0E32BF13
:104B90004FF0000E23FA0CF310EB030041EB04512D
:104BA000B4EB115FD0D0A1EB045101F5801149089D
:104BB0005FEA300001EB04510ED350F1000038BF22
:104BC00012FA0EFE08D1BDE81040C9E7401C38BFFC
:104BD0005FEA4202CAD1C3E7BDE810404FEA410391
:104BE00013F5001F38BF7047A1F1C04100F0CAB9EA
:104BF0009EEA445F08D011EA5E0FBDE8104004BF92
:104C000001F0004100207047BDE8104070B500F091
:104C10006BF900BF64FBBE3E0000E0FF491058BFC7
:104C2000C1F140415B1058BFC3F140438B42EFF3E9
:104C3000008070474FEA41034FEA5353A3F5806366
:104C4000D3F11E03C8BFD3F1210C0CDD4FF000429D
:104C500042EAC12242EA505232FA03FC8CEAE17C79
:104C6000ACEBE1707047102BC4BF0020704703F518
:104C7000787CBCF1FF3F04D06FF0004282EA210053
:104C8000704770B500F030F94992248000207047D9
:104C9000F2E700004FEA1153A3F58063D3F11E033E
:104CA000A8BFD3F1200C08DB4FF0004242EAC1223A
:104CB00052EA505232FA03F0704709420BD4102BDB
:104CC000C4BF0020704703F5787CBCF1FF3F05D0DE
:104CD0004FF0FF3070474FF00000704770B500F0A4
:104CE00003F900BF4992248000207047F0E710F0DC
:104CF000004248BF4042B0FA80F310FA03F10AD0F4
:104D0000C3F11D0303F580634FEA415002EB0352E8
:104D100002EBD12170474FF00000704751EA030CBD
:104D200017D41CF5801F58BFBCF5801F00F106800A
:104D3000994218BF704708BF9042704707D711F5D6
:104D4000801F58BF13F5801F19D4994270478942BC
:104D500070471CF5801F08D5BCF5801FF7D58B4226
:104D600018BF704708BF824270474FF4001C1CEB0D
:104D7000410F38BF1CEB430F01D28B42704770B517
:104D800000F0B2F8922449004FF000514FF08053E8
:104D9000FFF744BFDFF848C170B51CEA111E1EBF03
:104DA0001CEA13159EEA0C0F95EA0C0F00F06F80B9
:104DB00081EA030423EA4C134EEAD47E21EA4C1123
:104DC00041F4801143F48013AE44A1FB024CA0FBDC
:104DD0000365AEF17F7E361955EB0C05A1FB034C44
:104DE0004CF10003A0FB021C16EB0C06654153F1CD
:104DF0000003094218BF46F0010613F4007F0BD1EF
:104E00004FEA03314FEA0530340341EA155140EAD5
:104E100016506FF003020AE04FEAC3214FEAC520A3
:104E2000F40241EA555140EA56506FF0020202EB9B
:104E30002E4201EB025585EACE710AD05FEA440C9E
:104E400018BF24F0004450F1000041F1000120EAB5
:104E5000D47040F2FE7C624500D270BDA84214BFFF
:104E60004FF080444FF04044002E08BF0024BEF1B4
:104E7000806FA8BFA1F1C041BDE8704080F2828080
:104E80004FF0000001F1C04101F0004170479EEA7F
:104E90000C0F0CEA131518BF95EA0C0F06D04FF053
:104EA000000081EA030E0EF0004170BD00F01CF816
:104EB0008900013E00F007B800F009B84FEA430C42
:104EC0005FEA5C5C08D081EA030100F05BB84FEA5E
:104ED000410C5FEA5C5CF6D14FF00000014970477D
:104EE0000000FF070000F87F0EF1020E2EF0030E07
:104EF0005EF8046B364205D4012A43EB030515F531
:104F0000001F12D8012841EB010C1CF5001F0CD822
:104F10000ED14FEAD17C15F5001F0CEB4C0C0CF1B7
:104F2000020C08BF4CEBD37C04E04FF0080C01E00E
:104F30004FEAD37C0CEB4C0526FA05F606F0070683
:104F4000B6F1040C06D20EEB860CBDE870404CF0B6
:104F5000010C6047DFE80CF0090B02024FF0004142
:104F60004FF00000A1F5002170BD19461046012840
:104F700051EB010418BFD4F5001484BF002001F0E8
:104F8000004170BD0808A0F500114FEA31017047DB
:104F900091EA030F10B581F000413FF59FAD83F01A
:104FA000004300F009B8000010B591EA030F48BFB4
:104FB00083F000433FF592AD841A71EB030C07D2E6
:104FC00012198CF0004C43EB0C03001B61EB0C013D
:104FD000DFF8A4E14FEA1154A4EB135C1EEA430F7F
:104FE00018BF9EEA445F00F0B08023EA6E0352428D
:104FF00021EA0451C3EB6E0338BF5B1EDCF1200EC7
:1050000025D322FA0CFE10EB0E0043FA0CFE41EB06
:105010000E01CCF1200E03FA0EFE10EB0E0051F142
:105020000001CCF1200E29D412FA0EF201EB04514A
:10503000BDE8104058BF7047401C1CBFB2F1004F84
:10504000704700280CBF491C20F00100704712EB8C
:10505000020E43EB030218BF4FF0010E4EEA42026C
:10506000ACF1200CDCF11E0E54D943FA0CFE10EB0F
:105070000E0051F1FF31CCF11E0ED5D50EF1010E0F
:1050800012FA0EFE404141EB010101EB445C5FEA84
:105090005C5C10D910EBDE7001EB045138BFBEF13F
:1050A000004FBDE8104018BF704700280CBF491CD6
:1050B00020F00100704730D24FEAD42C11F50011D6
:1050C00024F400641BD0B1FA81F20B3AA41AA41E96
:1050D000D2F12003914030FA03F31943904001EBE1
:1050E000CC71002C01EB0451BDE81040A8BF704703
:1050F00001F1C0414FF0000001F000417047B0FAEB
:1051000080F310FA03F100D110BDE41A173C4805F2
:10511000C90AE4E701EB045110BD491001EB045149
:10512000BDE810404FEA300002E04FF00001704748
:105130004A0008BF0042F8D0B2F5001F28BF7047F0
:1051400001F000414FF0000070479EEA445F07D035
:1051500011EA5E0FBDE8104004BF00210020704737
:10516000BDE8104070B5FFF7BFFE00BF40DFF63E60
:1051700083F00041104670470000E0FF43004FEA13
:10518000D30C4FEA3C0C43401FBF40070CF1605169
:1051900013F0FE4F70471CF0006F03D100200CF09D
:1051A000004170470CF0004343EA507010B540EAEC
:1051B000CC0000F044FA00BF000000924FEA00016A
:1051C000FFF7E0BE4FF000414FF00000A1F50021D5
:1051D0007047000090EA010F48BF81F0004100F1E4
:1051E000B282421A3CBF801A89184FEAD0524FF05F
:1051F0007F4C1CEA410FA2EBD15318BF9CEA026F0F
:1052000000F03B804FF0004C4CEA00204CEA0121BA
:1052100021FA03FC10EB0C0C1ED202F1FF325FEA04
:105220001C2040EBC25038BF70471CF07F0F4FEA84
:10523000400C18BFBCF17F4F38BF7047C3F120034B
:10524000994008BF20F00100BCF17F4F38BF704784
:10525000A0F1C04000F039BA4FEA3C00000A40EB30
:10526000C25028BF1CF0FF0F4FEA400CE6D018BF19
:10527000BCF17F4F38BF7047EAE79CEA026F05D068
:1052800010EA5C0F08BF00F00040704710B500F056
:10529000D6F900BF64FBBE3E401058BFC0F140408D
:1052A000491058BFC1F140418142EFF3008070477F
:1052B0004FF47F0C1CEAD0121EBF1CEAD11392EAF5
:1052C0000C0F93EA0C0F00F0858090EA010F48BFA5
:1052D00042F4807240F4000C41F400002CF07F4155
:1052E00020F07F4000B58142A2EB03020FF2081CC0
:1052F000ACEB504EC0F100009EF800E04FEA4E0EBD
:1053000000FB0EFC38BF49004FEA2C1C02F5FA02E4
:105310000CFB0EF34FEACE1E4FEA112C4FEAC121CF
:105320000EEB635E42EB22420EFB0CFC4FEA1C5379
:1053300000FB03114FEA112C4FEA01310EFB0CFC6C
:105340004FEADC4C00FB0C11C14228BF09184CEBA2
:1053500003335DF804EB10EB410143EBC250B2F5AF
:105360007C0F38BF704729D512F0F00F1CBF00F139
:10537000C04000F0004070470081828384858687AA
:1053800088898B8C8D8E8F919293959697999A9C04
:105390009D9FA0A2A3A5A7A8AAACAEB0B2B3B5B773
:1053A000B9BCBEC0C2C5C7C9CCCED1D4D7D9DCDF49
:1053B000E2E6E9ECF0F3F7FAFE0000004FEA400CF9
:1053C0000CF1807CBCF17E4F28BF7047B0F1C0402B
:1053D00000F07BB990EA010F0CEAD11348BF42F408
:1053E0008072624538BF634507D213F47F0F16D031
:1053F00080EA010000F00040704710B500F01FF98E
:10540000097EFC3E00F005B880EA010000F0004093
:10541000704780EA010000F0004000F056B912F435
:105420007F0F04BF0248704780EA010000F04DB9C9
:105430000000C07F41000B0ED3F19E0208D950F44A
:1054400000034FEA032323FA02F048BF40427047AB
:1054500010B500F0F4F800BF499224800020704796
:105460006FF0004282EA200070470000C10DD1F1C8
:105470009E0206DB4FEA002343F0004323FA02F0CA
:105480007047004207D54FEA4001B1F1FE4F02D20A
:105490004FF00000704710B500F0D1F84992248019
:1054A000002070476FEA200070470000B0FA80F3D8
:1054B00010FA03F2C3F19D030AD0D90501EB1220C3
:1054C000530638BF704700F1010008BF20F001000B
:1054D0007047000050EA010C00F113801CF5000F2A
:1054E00058BFBCF5000F01D48842704707D710F5AC
:1054F000000F58BF11F5000F15D48842704789423C
:1055000070471CF5000F04D5BCF5000FF7D581429C
:1055100070474FF0807C1CEB400F38BF1CEB410FF5
:1055200001D28142704710B500F089F892244900F9
:105530004FF000504FF08051FFF7AEBE4FF47F0C9C
:105540001CEAD0121EBF1CEAD11392EA0C0F93EA98
:105550000C0F00F0478090EA010F48BF42F48072C0
:105560004FF0004C4CEA00204CEA012102EB030210
:10557000A0FB0113A2F50002002918BF43F00103AC
:105580005B0028BF4FEA330342EB22425FEA132C51
:105590004CEBC2502EBFBCEB436FB2F57C0F704793
:1055A0004FEA036CBCF1004F08BF20F00100B2F5D8
:1055B0007C0F38BF70470BD582F0FF0212F5803F99
:1055C000C8BF704700F1C040D8BF00F0004070472E
:1055D00000F5000C5FEA4C0C48BF7047B0F1C040CA
:1055E00000F073B890EA010F0CEAD11348BF42F4FF
:1055F0008072624538BF634504D280EA010000F042
:105600000040704710B500F01AF800BF8900013E55
:1056100000F007B800F009B85FEA410C5FEA1C6CC3
:1056200008D080EA010000F050B85FEA400C5FEA61
:105630001C6CF6D14FF00040A0F5800070470EF1D1
:10564000020E2EF0030E5EF8044B244204D44FEAFF
:105650004102B2F17F4F11D84FEA4003B3F17F4FBF
:105660000CD80ED14FEAD07CB2F17F4F0CEB4C0C32
:105670000CF1020C08BF4CEBD17C04E04FF0080C9D
:1056800001E04FEAD17C0CEB4C0324FA03F404F064
:105690000704B4F1040C06D20EEB840CBDE81040F4
:1056A0004CF0010C6047DFE80CF0070802024FF0F5
:1056B0000040A0F5800010BD0846420018BFD2F19E
:1056C000807288BF00F0004010BDFF2141EAD05039
:1056D000C005704751EA000C00F113801CF5000F63
:1056E00058BFBCF5000F01D48142704707D711F5B0
:1056F000000F58BF10F5000F15D481427047894242
:1057000070471CF5000F04D5BCF5000FF7D5884293
:1057100070474FF0807C1CEB410F38BF1CEB400FF3
:1057200001D28842704780EA010081EA000180EAE4
:105730000100FFF7F8BE000090EA010F48BF81F0BA
:1057400000413FF54EAD421A04D882F00042A0EB72
:10575000020011444FEAD0524FF07F4C1CEA410F37
:10576000A2EBD15318BF9CEA026F4AD04FF0004C15
:105770004CEA00204CEA012121FA03FCB0EB0C0CAE
:105780000FD412F0FE0F36D05FEA4C001DD5001288
:1057900040EBC25038BF70471CF03F0F18BF704736
:1057A0000BE0A2F101025FEA1C2040EBC25038BFBF
:1057B00070471CF07F0F18BF7047C3F1200399405A
:1057C00014BF401E20F00100704780084FEA1223EA
:1057D00008BF7047B0FA80FCA2EB0C02CCF1280C99
:1057E00060FA0CF093EA122F04BF00EBC25070472E
:1057F0004FEAC3707047130A5FEADC1008BF7047B6
:10580000F6E79CEA026F04D010EA5C0F08BF0020A4
:10581000704710B5FFF713FF40DFF63E81F0004000
:105820007047FBF733B80000C0120000802500006D
:10583000004B00000096000000E1000000C20100E3
:10584000008403000008070000100E0000000000A4
:1058500000000000002F00000000070007000014F7
:105860007F147F1400242A7F2A1200626408132305
:1058700000364955225000000503000000001C229C
:105880004100000041221C000014083E08140008DA
:10589000083E0808000000A060000008080808088A
:1058A000000060600000002010080402003E514922
:1058B000453E0000427F40000042615149460021C0
:1058C00041454B31001814127F10002745454539DA
:1058D000003C4A4949300001710905030036494935
:1058E000493600064949291E0000363600000000EE
:1058F0005636000000081422410000141414141439
:1059000000004122140800020151090600324959E1
:10591000513E007C1211127C007F49494936003EFD
:1059200041414122007F4141221C007F49494941B8
:10593000007F09090901003E4149497A007F0808B2
:10594000087F0000417F4100002040413F01007F6F
:1059500008142241007F40404040007F020C027F3B
:10596000007F0408107F003E4141413E007F09094D
:105970000906003E4151215E007F09192946004673
:10598000494949310001017F0101003F4040403F4A
:10599000001F2040201F003F4038403F0063140894
:1059A000146300070870080700615149454300006F
:1059B0007F41410000552A552A55000041417F0092
:1059C0000004020102040040404040400000010287
:1059D0000400002054545478007F48444438003870
:1059E0004444442000384444487F003854545418F8
:1059F00000087E0901020018A4A4A47C007F08040A
:105A000004780000447D4000004080847D00007FD9
:105A1000102844000000417F4000007C04180478F6
:105A2000007C0804047800384444443800FC2424F2
:105A300024180018242418FC007C080404080048DA
:105A40005454542000043F444020003C4040207CFB
:105A5000001C2040201C003C4030403C00442810EA
:105A60002844001CA0A0A07C004464544C4414149E
:105A700014141414000000000000000000000000D6
:105A800000000000000000F80000000000000033EB
:105A90003000000000100C06100C06000000000092
:105AA0000000000040C07840C0784000043F04047B
:105AB0003F040400007088FC08300000001820FF3C
:105AC000211E0000F008F000E018000000211C0377
:105AD0001E211E0000F00888700000001E212324F3
