:020000040800F2
:10000000380E002001010008F90D0008B30C0008AB
:10001000350D0008E1090008F71F00080000000086
:100020000000000000000000000000004116000871
:10003000E509000800000000E91400082D17000879
:100040001B0100081B0100081B0100081B01000820
:100050001B0100081B0100081B0100081B01000810
:100060001B0100081B0100081B0100081B01000800
:100070001B0100081B0100081B0100081B010008F0
:100080001B0100081B0100081B0100081B010008E0
:100090001B0100081B0100081B0100081B010008D0
:1000A0001B0100081B0100081B0100081B010008C0
:1000B0001B010008911700081B0100081B01000824
:1000C0001B0100081B0100081B0100081B010008A0
:1000D0001B0100084D1900081B010008C919000880
:1000E0001B0100081B0100081B010008DFF80CD0F1
:1000F00000F064FC00480047912A0008380E0020F8
:100100000648804706480047FEE7FEE7FEE7FEE7B1
:10011000FEE7FEE7FEE7FEE7FEE7FEE73117000831
:10012000ED000008D2B201E000F8012B491EFBD21D
:1001300070470022F6E710B513460A4604461946F2
:10014000FFF7F0FF204610BD10B5002200E0521C62
:10015000835C8C5CA34201D1002BF8D1D8B2E1B210
:10016000401A10BDF0B480EA0102D40F4200B2EB95
:10017000410F02D20246084611464A0042D0C30D42
:10018000DDB2C1F3C752AD1A202D35DAC1F3160125
:1001900041F4000204B15242C5F1200602FA06F110
:1001A0002A411044B3EBD05F23D0C4B1012DA0EBA2
:1001B000C35009DCF0BC4FF0004202EAC352DBB28C
:1001C00000F5000000F0CFBA400000F1807000EBB5
:1001D000C350A0F1807040EAD170490009E049089D
:1001E00041EAC071A0EBC35000F50000400800EBED
:1001F000C350F0BC00F0AEBA6142012202EB4101F3
:10020000001BF6E7F0BC704781F00041AAE780F0E0
:100210000040A7E780EA010210B502F00043400069
:1002200022D04A001FD0010E01EB1261C0F356002C
:10023000C2F3560240F4000042F40002A0FB022088
:1002400000047F39140400D0401C50EA124001D44D
:100250004000491EC2B20C0604EBD010401C4008FE
:10026000802A02D003E0002010BD20F00100002908
:1002700000DA0020184310BD30B480EA010202F019
:10028000004530F0004221F0004013D090B1C30D82
:10029000D40DC2F31601C0F31600E41A41F40001B4
:1002A00040F400027D34914201D3641C00E0490017
:1002B000002C02DA30BC002070474FF4000000230D
:1002C000914201D3891A034340084FEA4101F7D113
:1002D00051B1914202D14FF0004105E002D24FF0FE
:1002E000010101E06FF0010103EBC450284430BC70
:1002F00000F030BA2DE9FE4F804681EA0300C00FBE
:100300000C46009021F0004123F00045B8EB0200BC
:10031000A94105D24046214690461C460B4602465E
:1003200023F00040104347D0270DC7F30A00C3F362
:100330000A510290401A019040286BDAC3F313006F
:1003400040F4801B0098924620B10023D2EB030AB0
:1003500063EB0B0B01985946C0F14002504600F088
:10036000C8F906460D4650465946019A00F0E0F994
:1003700010EB08006141002487EA115284EAE77318
:100380001A4340D0009A62B3019A012A4FEA0752F9
:1003900015DC001B61EB02014FF0004202EA07523C
:1003A000CDE90042001C41F5801132462B4600F099
:1003B00017FA03B0BDE8F08F40462146F9E7001B6D
:1003C00061EB0201001C41F5801300185B4120180D
:1003D000A2F5001747EB030140EAD570B6196D414D
:1003E00011E06D084FEA360645EAC0754FEA07523C
:1003F000001B61EB0201001C41F5801149084FEA26
:1004000030000019514132462B4603B0BDE8F04F91
:1004100000F0D7B90098012240000023D0EB02027F
:1004200063EBE073009821464FEAE074B8EB0000FC
:1004300061EB0401E9E783F000435BE781F00041F1
:1004400058E72DE9FE4F81EA030404F0004421F04F
:10045000004100944FF0000B23F0004350EA0104E8
:100460005ED052EA03045BD0C3F30A54C1F30A55C9
:100470002C44A4F2F3340194A0FB0254C1F3130101
:1004800041F48011C3F3130343F4801301FB0244CE
:1004900000FB034E840A970A44EA815447EA8357D3
:1004A000A4FB076802958D0A05FB07854FEA932C8C
:1004B00004FB0C542705029D4FEA065847EA1637FD
:1004C000B5EB08056EEB070C870E920E47EA811715
:1004D00042EA8312A7FB0201B6EB0B0164EB0004B6
:1004E0002B0D43EA0C335E1844EB1C50DA465146A0
:1004F000E7FB0201C5F313044FEA0B3343EA14533D
:100500004FEA0432019C43EA0603A4F10C0402946E
:10051000009CCDE900B400F063F903B0BDE8F08FB2
:1005200000200146F9E7C10F80EAE0700844CA07DD
:100530009623002100F017B90EB5C10F80EAE070D4
:100540000844CA07002140F233438DE80E000A46F2
:100550000B4600F045F903B000BD0EB540F2334143
:1005600002910021CDE900110A460B4600F038F94E
:1005700003B000BD20F00040C10DC0F3160040F4F0
:1005800000007F2901DA00207047962903DCC1F1C1
:100590009601C840704796398840704770B5C1F3DE
:1005A0000A5201F000450024C1F3130140F2FF3369
:1005B00041F480119A4201DA002070BD40F23343C9
:1005C0009A42A2F2334203DC524200F0A1F800E06A
:1005D00090402C43F1D0404270BDC1F30A5210B597
:1005E000C1F3130140F2FF3341F480119A4201DA62
:1005F000002010BD40F233439A42A2F2334203DCA2
:10060000524200F085F810BD904010BD00F000424D
:1006100030F000400AD0C10D01F56071C0F3160042
:1006200042EA0151C20840071143704700200146C9
:100630007047000030B5041E71F1000404DB4FF078
:100640000044404264EB0101141E73F1000405DB19
:100650001C464FF00043524263EB04038B4208BF39
:10066000824230BD30B50B460146002020220124D5
:1006700009E021FA02F59D4205D303FA02F5491B70
:1006800004FA02F52844151EA2F10102F1DC30BD86
:100690002DE9F05F0546002092469B4688460646B7
:1006A000814640241BE0284641464746224600F04A
:1006B0002FF853465A46C01A914110D31146184696
:1006C000224600F016F82D1A67EB01084F46224625
:1006D0000120002100F00DF817EB00094E41201E0B
:1006E000A4F10104DFDC484631462A464346BDE812
:1006F000F09F202A04DB203A00FA02F10020704724
:100700009140C2F1200320FA03F31943904070474F
:10071000202A04DB203A21FA02F00021704721FA56
:1007200002F3D040C2F120029140084319467047BD
:10073000202A06DBCB17203A41FA02F043EAE073A5
:1007400006E041FA02F3D040C2F120029140084392
:10075000194670470029A8BF7047401C490008BFD0
:1007600020F00100704710B4B0FA80FC00FA0CF0E1
:1007700050EA010404BF10BC704749B1CCF1200419
:1007800021FA04F411FA0CF118BF012121430843A6
:10079000A3EB0C01CB1D4FEA00614FEA102042BFD2
:1007A000002010BC704700EBC35010440029A4BFC8
:1007B00010BC7047401C490008BF20F0010010BC6D
:1007C000704710B5141E73F1000408DA401C41F1A3
:1007D000000192185B411A4301D120F0010010BDC5
:1007E0002DE9F04D92469B4611B1B1FA81F202E03B
:1007F000B0FA80F220329046FFF77BFF04460F46A6
:1008000040EA0A0041EA0B0153465A46084313D016
:10081000114653EA010019D0C8F140025046FFF7D3
:1008200077FF05460E46504659464246FFF761FFA0
:10083000084305D0012004E020463946BDE8F08D8C
:100840000020054346EAE0762C4337430A986305C7
:10085000E40AA0EB08000022FD0A44EA47540A30EB
:1008600002D500200146E9E7010510196941DDE9DB
:10087000084500196941BDE8F04DA2E72DE9F04DAA
:1008800081EA030404F0004B21F0004514464FF0C8
:10089000000A23F0004150EA050220D054EA010288
:1008A0001DD0C5F30A570246C5F31303C1F3130065
:1008B000C1F30A5640F4801543F48013A7EB0608F1
:1008C000101BD64608F2FD3873EB050002D308F181
:1008D000010801E092185B41B8F1000F03DA002033
:1008E0000146BDE8F08D00204FF480110646844695
:1008F0000EE0171B73EB050705D3121B63EB050313
:1009000006434CEA010C49084FEA300092185B415B
:1009100050EA0107EDD152EA030012D082EA040046
:1009200083EA0501084305D0101BAB4106D2012222
:10093000002306E000224FF0004302E06FF00102C6
:1009400053101AEB06004CEB085110EB0A0041EB78
:100950000B01BDE8F04DFFF734BFC1F30A52C1F3FC
:10096000130140F2FF3341F480119A4202DA002071
:100970000146704740F233439A42A2F2334202DC0E
:100980005242FFF7C5BEFFF7B4BE000030B5041EEB
:1009900071F1000404DB4FF00044404264EB0101BC
:1009A000141E73F1000405DB1C464FF00043524255
:1009B00063EB0403994208BF904230BD064C074DDB
:1009C00006E0E06840F0010394E80700984710341F
:1009D000AC42F6D3FFF78EFB98340008B834000819
:1009E00000BFFEE7704700B5034603E04FF47A709E
:1009F00000F005F81800A3F10103F7D100BD00EBEA
:100A0000C001C9004FF0E022516100219161052130
:100A1000116100BF4FF0E021096901F48031002924
:100A2000F8D004214FF0E02211617047F0B587B093
:100A3000012016490860FA211548FFF77AFB15488E
:100A40000068FFF7E3FD04460D4613480068FFF712
:100A5000DDFD06461148CDE904450068CDE9006199
:100A600002900F4802680F4801680FA001F0C6FA13
:100A7000C820FFF7B8FF1CA10548FFF765FB10B1C0
:100A800001201A490870002007B0F0BD24000020A2
:100A9000E00100204C00002048000020EC00002075
:100AA000E8000020E400002041542B4D51545450E4
:100AB00055423D302C222573222C227B5C2225734B
:100AC0005C223A5C2225302E34665C225C2C5C224F
:100AD00025735C223A5C2225302E34665C227D220E
:100AE0002C302C300D0A00004F4B0000F400002089
:100AF0002DE9F041024600250026002000230024B5
:100B0000002791F803C00CF00F0591F803C00CF01A
:100B1000100CBCF1000F03D091F802C04CEA05059F
:100B200091F800C0BCF1000F31D0146800202BE018
:100B30004FF0010C0CFA00F3B1F800C00CEA030608
:100B40009E4220D183004FF00F0C0CFA03F7BC43F8
:100B500005FA03FC4CEA040491F803C0BCF1280F29
:100B600006D14FF0010C0CFA00FCC2F814C00AE0E8
:100B700091F803C0BCF1480F05D14FF0010C0CFAFD
:100B800000FCC2F810C0401C0828D1D31460B1F892
:100B900000C0BCF1FF0F34DD546800202EE000F1EE
:100BA000080C4FF0010808FA0CF3B1F800C00CEA89
:100BB00003069E4221D183004FF00F0C0CFA03F77D
:100BC000BC4305FA03FC4CEA040491F803C0BCF1F1
:100BD000280F05D100F1080C08FA0CF8C2F81480AF
:100BE00091F803C0BCF1480F07D100F1080C4FF099
:100BF000010808FA0CF8C2F81080401C0828CED36F
:100C00005460BDE8F0810000F0B50A4600230024DE
:100C10000021002500F00046B6F1004F02D11D4E24
:100C2000F16901E01B4E7168C0F3034583B200F423
:100C30004016B6F5401F08D121F07061154E766858
:100C400026F07066134F7E6012E000F48016B6F551
:100C5000801F06D1032606FA05F4A14341F0706116
:100C600006E0460D360103FA06F6B14341F0706125
:100C700022B1460D360103FA06F6314300F0004674
:100C8000B6F1004F02D1034EF16101E0014E7160F7
:100C9000F0BD00000000014002460020D3680B4078
:100CA0000BB1012000E000207047416170470161F5
:100CB000704700BFFEE710B500F012F841F61F4183
:100CC000642000F097FD00F00BFA00F0D9F800F076
:100CD00033F84FF4165001F037FF01F0B9FE10BDA4
:100CE00008B50121102000F021FC10208DF8030030
:100CF0004002ADF8000003208DF80200694602486A
:100D0000FFF7F6FE08BD00000010014010B52021DD
:100D10000748FFF7C1FF28B94FF400510448FFF717
:100D2000C6FF04E04FF400510148FFF7BEFF10BDBD
:100D30000010014000BFFEE700B587B04FF4A0608F
:100D400000F094F80121880300F0F0FB012108462F
:100D500000F0ECFB0121042000F0E8FB18208DF8E6
:100D60001B004FF40070ADF8180003208DF81A0036
:100D700006A91F48FFF7BCFE48208DF81B004FF462
:100D80008060ADF8180003208DF81A0006A91848F5
:100D9000FFF7AEFE4FF4E13002900020ADF81400F2
:100DA0000C20ADF812000020ADF81000ADF80E00D8
:100DB000ADF80C0002A90F4801F0A8F825208DF825
:100DC000040001208DF807008DF8050000208DF843
:100DD000060001A800F012F8012240F22551054852
:100DE00001F06FF80121034800F0D9FF07B000BD02
:100DF00000080140003801407047000070B5002134
:100E000000230F22C47804B3154C246804F4E06472
:100E1000C4F5E064210AC1F10403CA40447804FA2D
:100E200003F184781440214309010E4C0678A15542
:100E3000047804F01F050124AC4005786D11AD0065
:100E400005F1E025C5F8004109E0047804F01F052C
:100E50000124AC40044D0678761145F8264070BD5B
:100E60000CED00E000E400E080E100E00249014315
:100E7000024A1160704700000000FA050CED00E026
:100E800070B5002418E004F1B000002100F0A9FAC8
:100E90000021084600F0A5FA0021102000F0A1FA78
:100EA000002505E00121002000F09BFA681CC5B276
:100EB000802DF7DB601CC4B2082CE4DB70BD0000A1
:100EC0002DE9FF5F86B014461D464FF0010A002051
:100ED0000390049005904FF00109002600BF83465F
:100EE0000022134620462946FFF7A4FB09D285F0CD
:100EF0000040CDE9004020460199FFF74FFB064630
:100F000004E020462946FFF749FB06463046FFF736
:100F100013FB22462B46CDE90001FFF78FFA074667
:100F200088460022554B38464146FFF78AFACDE9FC
:100F30000001FFF752FB834607E009EB89004FEA07
:100F400040090AF1010000F0FF0A0A2096FBF0F0C8
:100F500090FBF9F00028F0D142F2107096FBF0F00F
:100F60000A2190FBF1F201FB1200C0B28DF80C00D7
:100F70004FF47A7096FBF0F090FBF1F201FB120057
:100F8000C0B28DF80D00642096FBF0F090FBF1F2FA
:100F900001FB1200C0B28DF80E000A2096FBF0F0A3
:100FA00090FBF1F201FB1200C0B28DF80F000A2095
:100FB00096FBF0F100FB1160C0B28DF810002E20FE
:100FC0008DF811004FF47A70BBFBF0F00A21B0FBF2
:100FD000F1F201FB12008DF812006420BBFBF0F06F
:100FE000B0FBF1F201FB12008DF813000A20BBFBED
:100FF000F0F0B0FBF1F201FB12008DF814000A20B2
:10100000BBFBF0F100FB11B08DF815000021149826
:10101000801D03AA1154894608E003A810F80900AE
:10102000303003A901F8090009F10109B9F10A0FEB
:10103000F3DB0022134620462946FFF7FBFA08D2CD
:101040000AF1010000F0FF0A2D20CAF1050103AAF0
:1010500050542E208DF8110000211498801D03AAF1
:101060001154CAF1050003A942180C23DDE906104A
:1010700000F09CF90AB0BDE8F09F00000088C34072
:1010800010B501210748FFF712FE02210548FFF7BE
:101090000EFE02210348FFF708FE01210148FFF779
:1010A00004FE10BD000C014010B501210548FFF7FA
:1010B000FEFD02210348FFF7F8FD02210148FFF77A
:1010C000F6FD10BD000C014010B501210348FFF7EB
:1010D000EEFD01210148FFF7E8FD10BD000C0140C5
:1010E00008B50121092000F021FA01214248FFF74B
:1010F0008BFD0320ADF8000010208DF803000320C5
:101100008DF8020069463D48FFF7F2FC03213B4899
:10111000FFF7CDFD4FF44870FFF765FC0021AE20CE
:1011200000F05FF90021084600F05BF90021102073
:1011300000F057F90021402000F053F90021B020C1
:1011400000F04FF90021812000F04BF90021FF2031
:1011500000F047F90021A12000F043F90021A6206A
:1011600000F03FF90021A82000F03BF900213F20CA
:1011700000F037F90021C82000F033F90021D32016
:1011800000F02FF90021084600F02BF90021D520AE
:1011900000F027F90021802000F023F90021D82059
:1011A00000F01FF90021052000F01BF90021D920D3
:1011B00000F017F90021F12000F013F90021DA20E6
:1011C00000F00FF90021122000F00BF90021DB20C4
:1011D00000F007F90021302000F003F900218D20F4
:1011E00000F0FFF80021142000F0FBF80021AF20F0
:1011F00000F0F7F808BD000000023000000C0140CC
:101200002DE9F0470546894616463446002C22DA79
:101210006442642094FBF0F100FB11400A2190FB32
:10122000F1F0C7B20A2094FBF0F100FB114000F08E
:10123000FF080D224946284600F036F9691CC8B25D
:101240003A46494600F02AF8A91CC8B24246494627
:1012500000F024F820E0642094FBF0F100FB114042
:101260000A2190FBF1F0C7B20A2094FBF0F100FBD9
:10127000114000F0FF080B224946284600F014F9FF
:10128000691CC8B23A46494600F008F8A91CC8B221
:101290004246494600F002F8BDE8F0872DE9F041EA
:1012A00005460F46164600BF05EB45014906080EE8
:1012B000394600F015F800240BE006F1100101EBAF
:1012C0004101064A02EB4101085D012100F089F865
:1012D000641C062CF1DBBDE8F0810000102C000836
:1012E00070B504460D4605F1B000002100F079F814
:1012F000102141EA1410002100F073F804F00F00EF
:10130000002100F06EF870BD2DE9F04707460E464B
:101310009046994600250024A8F12000C5B27F2FF1
:1013200002DD0027B01CC6B2B9F1100F24D131463E
:101330003846FFF7D5FF002408E004EB0511194AF1
:10134000505C012100F04DF8601CC4B2082CF4DBA5
:10135000701CC1B23846FFF7C3FF002409E004EB5C
:10136000051108310F4A505C012100F03AF8601C69
:10137000C4B2082CF3DB12E031463846FFF7B0FF69
:1013800000240AE005EB4501074A02EB4101085D34
:10139000012100F026F8601CC4B2062CF2DBBDE887
:1013A000F0870000382E0008102C00082DE9F041CD
:1013B00005460E4614461F460EE022783B4631464F
:1013C0002846FFF7A1FF05F10800C5B2782D02DD20
:1013D0000025B01CC6B2641C20780028EDD1BDE801
:1013E000F08170B504460D461DB1E0B200F046F83C
:1013F00002E0E0B200F02CF870BD00002DE9F041F1
:1014000005462C4601211148FFF74FFC002619E044
:10141000274607F08007802F04D102210B48FFF7F1
:1014200046FC03E002210948FFF73FFC6006040E7A
:1014300001210648FFF73BFC01210448FFF735FC7A
:10144000701CC6B2082EE3DBBDE8F081000C014041
:1014500010B50446FFF714FE7820FFF7CFFFFFF723
:1014600033FE0020FFF7CAFFFFF72EFE2046FFF7EE
:10147000C5FFFFF729FEFFF717FE10BD10B50446A4
:10148000FFF7FEFD7820FFF7B9FFFFF71DFE4020B4
:10149000FFF7B4FFFFF718FE2046FFF7AFFFFFF797
:1014A00013FEFFF701FE10BD2DE9F04105460F4682
:1014B000164600BF05EB45014906080E3946FFF701
:1014C0000FFF002409E006EB4601064A02EB41014A
:1014D000085D0121FFF785FF641C062CF3DBBDE8E6
:1014E000F0810000102C00087047000029B1064A66
:1014F000D2690243044BDA6104E0034AD2698243B1
:10150000014BDA61704700000010024029B1064A21
:1015100012690243044B1A6104E0034A12698243D0
:10152000014B1A61704700000010024029B1064AC1
:1015300092690243044B9A6104E0034A9269824330
:10154000014B9A61704700000010024029B1064A21
:10155000D2680243044BDA6004E0034AD268824353
:10156000014BDA60704700000010024030B50021E6
:101570000022002400232D4D6D6805F00C0121B1DF
:10158000042905D0082923D105E0294D056022E072
:10159000274D05601FE0254D6D6805F47012234D41
:1015A0006D6805F48034022505EB92421CB9214D8B
:1015B000554305600BE01D4D6D6805F400351DB108
:1015C0001C4D5543056002E0194D5543056002E08E
:1015D000174D056000BF00BF144D6D6805F0F001A8
:1015E0000909154D6B5C0568DD4045600F4D6D6860
:1015F00005F4E061090A104D6B5C4568DD408560CB
:101600000A4D6D6805F46051C90A0B4D6B5C456865
:10161000DD40C560054D6D6805F44041890B074DFF
:101620006B5CC568B5FBF3F5056130BD0010024089
:1016300000127A0000093D00000000201000002088
:10164000704710B500F002F810BD00000CB5002086
:10165000019000903348006840F4803031490860C0
:1016600000BF3048006800F4003000900198401C32
:101670000190009818B90198B0F5A06FF1D12948F0
:10168000006800F4003010B10120009001E000205B
:1016900000900098012843D12348006840F01000D2
:1016A000214908600846006820F0030008600846E9
:1016B000006840F0020008601A4840681949486014
:1016C0000846406848600846406840F480604860CA
:1016D0000846406820F47C1048600846406840F4A2
:1016E000E81048600846006840F08070086000BF5D
:1016F0000C48006800F000700028F9D009484068E4
:1017000020F00300074948600846406840F00200A6
:10171000486000BF0348406800F00C000828F9D179
:101720000CBD000000100240002002407047000085
:1017300010B51348006840F00100114908600846E0
:101740004068104908400E494860084600680E4944
:1017500008400B4908600846006820F480200860B3
:101760000846406820F4FE0048604FF41F0088607F
:10177000FFF767FF4FF000600449086010BD0000EC
:10178000001002400000FFF8FFFFF6FE08ED00E049
:1017900010B50121144800F06CF818B31348006824
:1017A000401C1249086008460068B0F5FA7F06D16F
:1017B0004FF400510E48FFF77AFAFFF7A7FA0B48EB
:1017C0000068B0F57A7F09D14FF400510848FFF75F
:1017D0006CFAFFF79BFA00200449086001210248D7
:1017E00000F038F810BD0000000400403000002078
:1017F000001001407FB505460C4601210220FFF78D
:1018000075FEADF80850ADF804400020ADF80A00B0
:10181000ADF8060001A90E4800F046F80122114675
:101820000B4800F037F81D208DF8000000208DF8DF
:10183000010003208DF8020001208DF803006846A6
:10184000FFF7DCFA0121024800F007F87FBD000035
:1018500000040040CA430282704721B1028842F06E
:101860000102028004E002884FF6FE731A400280F3
:10187000704730B50246002000230024158A05EA8F
:101880000103958905EA010413B10CB1012000E0C0
:10189000002030BD1AB183890B43838102E0838924
:1018A0008B43838170470000002202881D4B9842C1
:1018B0000ED01D4B98420BD0B0F1804F08D01B4B7F
:1018C000984205D01A4B984202D01A4B984204D144
:1018D0004FF68F731A404B881A43174B984207D024
:1018E000164B984204D04FF6FF431A40CB881A4358
:1018F00002808B8883850B8803850A4B98420BD026
:10190000094B984208D00E4B984205D00D4B984297
:1019100002D00D4B984201D10B7A038601238382BA
:1019200070470000002C01400034014000040040DA
:1019300000080040000C004000100040001400406F
:1019400000400140004401400048014010B540F211
:1019500025511A4800F08BFA50B3184800F042FBAA
:10196000C1B2174802780078401C154B1870154812
:10197000815418460078801E1249085C0D2801D158
:10198000012000E000200E490978491E0D4A515CF3
:101990000A2901D1012100E00021084340B10021C2
:1019A00007480078801E074A115400200449087037
:1019B00040F22551014800F0E3F910BD0038014024
:1019C00020000020E00100202DE9FF5F40F22551BA
:1019D000DA4800F04CFA01287ED1D84800F002FB2A
:1019E000D7490860D748006801285ED1D64800680A
:1019F00001285AD108460068FEF795FDD349D44A1C
:101A0000126841F82200D2480068082848D1886945
:101A1000D049FEF731FCCD4903904869CE49FEF725
:101A20002BFCCA4902900869CC49FEF725FC814687
:101A3000C649C868CA49FEF71FFC8246C349886880
:101A40004FF07E51FEF7E6FB8346C0494868C44923
:101A5000FEF7E0FBBD4901900868C049FEF7DAFBDC
:101A600000900199FEF77EFB80465946FEF77AFB0F
:101A700007465146FEF776FB06464946FEF772FBDF
:101A800005460299FEF76EFB04460399FEF76AFBD2
:101A9000B4490860AD49086AFEF76CFDB2490870A8
:101AA000AB480068401CAA490860A64800680128A5
:101AB00056D1AE480068012852D1A1480068FEF70F
:101AC00032FDA249A24A126841F82200A0480068EB
:101AD000072840D1486900E02EE19E49FEF7CCFB83
:101AE00080469A4908699C49FEF7C6FB814697499A
:101AF000C8689A49FEF7C0FB8246944988689849AD
:101B0000FEF7BAFB8346914948684FF07E51FEF7D5
:101B100081FB8E49039008689149FEF77BFB029098
:101B20000399FEF71FFB04465946FEF71BFB0646CA
:101B30005146FEF717FB05464946FEF713FB0746DD
:101B40004146FEF70FFB874908608049C869FEF7E8
:101B500011FD854908707E480068401C7C4908607A
:101B60008348006801285ED17748006801285AD16F
:101B700073480068FEF7D7FC7E49754A126841F841
:101B8000220073480068082848D188697149FEF727
:101B900073FB7849039048696F49FEF76DFB7549FF
:101BA000029008696D49FEF767FB81467149C86874
:101BB0006B49FEF761FB6F49019088684FF07E51D9
:101BC000FEF728FB6B49009048686549FEF722FB49
:101BD0008246684908686149FEF71CFB8346514606
:101BE000FEF7C0FA80460099FEF7BCFA0746019955
:101BF000FEF7B8FA06464946FEF7B4FA05460299DA
:101C0000FEF7B0FA04460399FEF7ACFA5A490860A9
:101C10005849086AFEF7AEFC584908704C480068FD
:101C2000401C4B49086052480068012854D14F4875
:101C30000068012850D142480068FEF774FC4D4905
:101C4000434A126841F822004148006807283ED103
:101C500048694049FEF710FB4649039008693E4930
:101C6000FEF70AFB80464349C8683C49FEF704FB7F
:101C70008146404988683A49FEF7FEFA82463D4966
:101C800048684FF07E51FEF7C5FA83463949086827
:101C90003349FEF7BFFA59460290FEF763FA05464C
:101CA0005146FEF75FFA07464946FEF75BFA0446DF
:101CB0004146FEF757FA06460399FEF753FA2E49B6
:101CC00008602C49C869FEF755FC2C49087020486B
:101CD0000068401C1E49086019480068622802D14B
:101CE00001201949086016480068632802D10120C4
:101CF0001E4908601248006865280AD10020124970
:101D000008601A4908600F490860194908601049BD
:101D100008600B480068612802D101200949086069
:101D200007480068642802D101201149086040F288
:101D30002551024800F024F8BDE8FF9F004800400C
:101D400088000020340000203C000020DC0200203D
:101D50005000002000401C4600007A440000C842A9
:101D600000002041480000204400002040000020E6
:101D700038000020040300204C0000204500002013
:101D800010B50022002340F66A14A14200D100BF22
:101D90000A1201249440A3B2DC43048010BD21B197
:101DA000828942F40052828104E082894DF6FF73F9
:101DB0001A4082817047000010B5044620488442D2
:101DC00009D101218803FFF7C1FB00214FF48040B6
:101DD000FFF7BCFB32E01B48844209D101214804D3
:101DE000FFF794FB00214FF40030FFF78FFB25E055
:101DF0001548844209D101218804FFF787FB00219F
:101E00004FF48020FFF782FB18E01048844209D18C
:101E10000121C804FFF77AFB00214FF40020FFF7EF
:101E200075FB0BE00A48844208D101210805FFF741
:101E30006DFB00214FF48010FFF768FB10BD000020
:101E4000003801400044004000480040004C004081
:101E50000050004002460020B1F5007F00D100BFD5
:101E600013880B400BB1012000E00020704770B5D3
:101E70000246002400230025002040F66A16B142E5
:101E800000D100BFC1F3421501F01F03012606FA7D
:101E900003F3012D02D19689334006E0022D02D1D1
:101EA000168A334001E0968A33400C12012606FA66
:101EB00004F41688344013B10CB1012000E0002076
:101EC00070BDF0B50346002400260025002040F632
:101ED0006A17B94200D100BF1846C1F3421401F09D
:101EE0001F06012707FA06F5012C01D10C3004E08A
:101EF000022C01D1103000E014301AB107682F43D2
:101F0000076002E00768AF430760F0BD2DE9F047C6
:101F100086B005460E460024A24600BFA146002713
:101F2000B08900B100BF2F462C8A4CF6FF700440E8
:101F3000F08804432C82AC894EF6F3100440B0883C
:101F400031890843718908430443AC81AC8A4FF658
:101F5000FF400440B0890443AC8201A8FFF706FBB0
:101F60001F48874202D1DDF810A001E0DDF80CA087
:101F7000A88900F4004040B10AEBCA0000EB0A1047
:101F800031684900B0FBF1F807E00AEBCA0000EB4A
:101F90000A1031688900B0FBF1F86420B8FBF0F05A
:101FA00004012009642101FB1089A88900F4004084
:101FB00040B1322000EBC900B0FBF1F000F00700A7
:101FC000044308E0322000EB09106421B0FBF1F07B
:101FD00000F00F0004432C8106B0BDE8F08700003C
:101FE0000038014001468888C0F308007047C1F3FB
:101FF00008028280704700BFFEE700000FB4054B67
:1020000010B503A9044A029800F0CAF810BC5DF8A4
:1020100014FB00006D2A0008F800002002E008C848
:10202000121F08C1002AFAD170477047002001E052
:1020300001C1121F002AFBD1704700002DE9FF5F8C
:10204000DDE90220010DDDF838B0024318D044F676
:102050001050A1F2FF3141430D140F98012820D0F8
:10206000A5EB0B00401C5FEA000A4FF00004474E4E
:10207000DFF81C91A046504616D5CAF1000728E0AB
:102080000F98012443A2012808D0002100980F9B3B
:10209000C0E90021C0E90243BDE8FF9F6FEA0B01E0
:1020A000F4E7CBF10000DEE7074612E0F80707D0BF
:1020B0002246334640464946FEF7C3F980468946E4
:1020C0002246334610461946FEF7BBF904460E4633
:1020D0007F10002FEAD1DDE90201BAF1000F42467C
:1020E0004B4602DAFEF7ADF901E0FEF7C7FB044606
:1020F0000E460022284BFEF749FC03D84FF0FF3074
:10210000014607E00022254B20463146FEF7F2F853
:10211000FEF723FC102409E0002C0ADB0A2200232E
:10212000FEF7B6FA019B30321A55641E50EA0102DE
:10213000F2D1641C019AC4F1110314440F9A012ACC
:1021400003D0012208430DD10AE0084304D0002047
:102150004FF0110B0F9080E7A3EB0B056D1E0DE008
:102160005B4504DD4FF0000205F1010504E003DAF0
:102170004FF00002A5F10105002AECD000980F995C
:10218000C0E90231C0E9004586E7000000002440B4
:102190000000F03F300000000000F0430000E03F8E
:1021A0002DE9FF4F95B09B468946064600250FE274
:1021B000252877D100242746F84A0121059400E01C
:1021C000044316F8013F203B01FA03F01042F7D117
:1021D00030782A2811D06FF02F033078A0F1300228
:1021E000092A16D8059A44F0020402EB820203EB96
:1021F00042021044761C0590EFE759F8042B059233
:10220000002A03DA504244F40054059044F00204DA
:10221000761C30782E2816D116F8010F44F00404ED
:102220002A280DD06FF02F023078A0F13003092B4F
:1022300009D807EB870302EB4303C718761CF3E7C3
:1022400059F8047B761C30786C280FD006DC4C28BB
:1022500017D068280DD06A2814D104E0742810D053
:102260007A280FD10DE044F400140AE044F48014FD
:1022700001E044F440147278824202D104F58014E3
:10228000761C761C307866280BD013DC582877D063
:1022900009DC002875D04528F6D04628F4D0472818
:1022A0001AD19DE118E0632835D0642879D06528DB
:1022B00012D195E1702873D008DC6728F1D0692825
:1022C0006FD06E280DD06F2806D1B5E073282CD0C2
:1022D000752875D0782874D05A46179990476D1C88
:1022E00075E1C4F30250022809D003280DD0D9F8B3
:1022F000001004280DD00D6009F1040967E1D9F838
:102300000010EA17C1E90052F6E7D9F800100D8075
:10231000F2E70D70F0E719F8041B8DF800100020AB
:102320008DF80100EA46012003E059F804AB4FF0B4
:10233000FF3061074FF0000102D40DE008F1010108
:102340008846B9420FDA8045F8DB1AF808100029F0
:10235000F4D108E008F1010188468142FADB1AF85D
:1023600008100029F6D105985B46A0EB0807214626
:102370003846179A00F094FA284400EB080507E065
:102380004DE029E10DE01AF8010B5A4617999047E4
:10239000B8F10108F7D25B4621463846179A13E197
:1023A00042E00A220092C4F302524FF0000A022ACD
:1023B00008D059F804CB032A4FEAEC710AD00DE09B
:1023C00029E02AE009F1070121F00702F2E802C141
:1023D000914609E00FFA8CFC4FEAEC71042A03D114
:1023E0004FFA8CFC4FEAEC71002907DA0A4600210B
:1023F000DCF1000C61EB02012D2202E0220504D584
:102400002B228DF80420012203E0E20701D02022D4
:10241000F7E7904659E00A2102E010220DE0102172
:102420004FF0000A00910BE010224FF0000A44F038
:1024300004040827009203E008224FF0000A0092EB
:10244000C4F30252022A05D059F804CB0021032A12
:1024500008D009E009F1070121F00702F2E802C102
:10246000914605E01FFA8CFC042A01D10CF0FF0C08
:102470004FF00008220728D5702806D0009B83F073
:10248000100353EA0A0305D00EE040228DF8042021
:10249000012208E05CEA010206D030228DF8042017
:1024A0008DF8050002229046009B83F0080353EA52
:1024B0000A030AD15CEA010201D1620705D5302284
:1024C0008DF804204FF001087F1E582804D034A056
:1024D00003900EA802900DE036A0F9E7534660463F
:1024E000009AFEF7D5F884460398825C0298401E55
:1024F000029002705CEA0100F0D1029806A9081A65
:1025000000F1200A600702D524F4803400E001279E
:10251000574502DDA7EB0A0000E0002000EB0A01AE
:10252000009005984144401A0590E00306D45B46AC
:102530002146179A059800F0B3F90544002706E0F4
:1025400001A85A46C05D179990476D1C7F1C4745EE
:10255000F6DBE0030CD55B462146179A059800F0A0
:102560009FF9054404E030205A46179990476D1CA6
:102570000099481E00900029F5DC08E002980299B5
:102580005A460078491C0291179990476D1CBAF180
:102590000001AAF1010AF1DC65E10000092801004F
:1025A00030313233343536373839616263646566C9
:1025B000000000003031323334353637383941428B
:1025C000434445460000000000F058F90544761CDD
:1025D000307800287FF4ECAD19B02846BDE8F08FC4
:1025E000620700D4062709F1070222F0070CFCE875
:1025F0000223E14603F000485FEA080C02D00FF224
:10260000702C0DE05FEA045C02D50FF2682C07E045
:102610005FEAC47C02D00FF2602C01E0AFF2700CD4
:102620004FF0FF3823F00043CDF850C065280CD0A0
:1026300006DC452809D046281DD047283DD13DE07D
:10264000662818D067287ED138E00021112F01DBE1
:10265000112000E0781CCDE9000106A90EA8FFF7C3
:10266000EDFCDDE90F010E9A03910021009207F1C4
:10267000010A04914DE04FF000400097CDE90110B0
:1026800006A90EA8FFF7DAFCDDE90F0203920E9B04
:1026900011990022DDF80CA00093049211B9791C65
:1026A00000EB010AB7EB0A0004D4C0F1FF3007F1D8
:1026B000010A0490AAEB0700019044E0012F00DA20
:1026C00001270021112F01DD112000E03846CDE95E
:1026D000000106A90EA8FFF7B1FCDDE90F010E9A73
:1026E0000391002104910092BA4621070CD403996A
:1026F000514500DA8A46BAF1010F05DD009AAAF1C8
:102700000101515C302908D0B84202DA10F1040FFF
:1027100006DA0121CDE9011015E0AAF10101E9E78E
:10272000002805DC049901440491AAEB000102E0B1
:10273000411C514500DD8A460499401A401C019015
:102740004FF000400290200704D40198504501DB6F
:10275000CDF8048000208DF84F0002980DF14F074E
:10276000B0F1004F25D02B200E9002984FF00208B8
:1027700000280CDA404202902D200E9007E00A213A
:102780000298FDF76FFF3031029007F8011DB8F194
:102790000001A8F10108F2DC02980028EFD1791EAF
:1027A0000E980870307800F0200040F0450007F8DF
:1027B000020D12A8C01B00F107081498007800B1A0
:1027C000012000EB0A01019801EBE07105984144FA
:1027D000401A401E0590E00306D45B462146179A36
:1027E000059800F05DF805441498007818B15A4631
:1027F000179990476D1CE00324D55B462146179A34
:10280000059800F04DF805441CE00498002807DB0B
:10281000DDE90301884203DD0098405C179901E07F
:10282000179930205A469047049805F10105401C3D
:1028300004900198401E019004D12E205A46179909
:1028400090476D1CBAF10001AAF1010ADDDC05E038
:1028500017F8010B5A46179990476D1CB8F1000103
:10286000A8F10108F4DC5B462146179A0598ABE60F
:102870002D0000002B000000200000002DE9F04199
:10288000044600251E461746880404D405E0394650
:102890002020B0476D1C641EF9D52846BDE8F081A4
:1028A0002DE9F041044600251E469046C80301D597
:1028B000302700E02027880404D505E0414638464B
:1028C000B0476D1C641EF9D52846BDE8F0810000B4
:1028D00010B5FA213548FDF72CFC35A0FFF78EFB2B
:1028E0004FF4FA60FEF77FF8FA213048FDF721FC3B
:1028F00032A0FFF783FB4FF47A70FEF774F833A130
:102900002A48FDF721FC08B1012010BDFA21274813
:10291000FDF70FFC2E4802682E4801682EA0FFF735
:102920006DFB4FF4FA60FEF75EF828A11F48FDF733
:102930000BFC08B10320E8E7FA211C48FDF7F9FB7E
:102940002B4803682B4802682B4801682BA0FFF72F
:1029500055FB6420FEF747F81CA11448FDF7F4FB73
:1029600008B10420D1E718E0FA211048FDF7E1FB97
:102970002D4801682DA0FFF741FB4FF4FA60FEF7E8
:1029800032F812A10948FDF7DFFB18B101202E49EA
:10299000086002E000202C4908602B4800680028ED
:1029A000E2D12A49087000BFAFE70000E001002033
:1029B00041542B5253540D0A0000000041542B4344
:1029C000574D4F44453D310D0A0000004F4B00006C
:1029D000D0000020CC00002041542B43574A4150E6
:1029E0003D222573222C222573220D0A00000000AF
:1029F000DC000020D8000020D400002041542B4DE2
:102A0000515454555345524346473D302C312C22A6
:102A10002573222C222573222C222573222C302C64
:102A2000302C22220D0A0000E000002041542B4DE2
:102A3000515454434F4E4E3D302C222573222C319D
:102A40003838332C300D0A00C8000020F400002074
:102A500010B5012407E0FFF73BFF0446224603219F
:102A60000120FEF7CDFB002CF5D110BD70B504465A
:102A70000D46E1B20548FFF7BAFA00BF402103480E
:102A8000FFF7E8F90028F9D0204670BD0038014072
:102A900008B5FEF710F949E025480068401C2449B4
:102AA000086024480068FDF7B1FD0446082022466E
:102AB0000B46012100900846FEF702FA08231E4843
:102AC000027801214620FEF71FFC1C480068FDF734
:102AD0009DFD0446082022460B460121009002205D
:102AE000FEF7EEF908231648027802214620FEF789
:102AF0000BFC14480078FDF730FD04460820224600
:102B00000B46012100900420FEF7DAF9084800681E
:102B1000B0F57A7F0AD10B48007810B9FDF786FF2F
:102B200001E0FFF795FF002001490860B4E70000CD
:102B3000C000002048000020440000204C0000207D
:102B400045000020F40000201CB5044601210820A7
:102B5000FEF7ECFC01218804FEF7C8FC2748FFF7CC
:102B60002BF94FF48060ADF8000003208DF80200CF
:102B700018208DF8030069462148FDF7B9FF4FF48E
:102B80000060ADF8000004208DF8030069461C4881
:102B9000FDF7AEFF1B48046000201A498880C880FA
:102BA000088188810C2048811448FFF7AFF9012182
:102BB0001248FFF7F4F8012240F225510F48FFF7C1
:102BC00080F927208DF8040002208DF805000320ED
:102BD0008DF8060001208DF8070001A8FEF70EF918
:102BE00041F61F416320FEF705FE002006490880DC
:102BF00000210648FEF731FE1CBD000000480040E1
:102C0000000C0140240A002056000020000400406F
:102C10000000000000000000002F0000000007007E
:102C2000070000147F147F1400242A7F2A120062F8
:102C300064081323003649552250000005030000A4
:102C400000001C224100000041221C000014083E2C
:102C500008140008083E0808000000A060000008F2
:102C60000808080800006060000000201008040246
:102C7000003E5149453E0000427F40000042615104
:102C80004946002141454B31001814127F1000279E
:102C900045454539003C4A49493000017109050361
:102CA00000364949493600064949291E0000363692
:102CB00000000000563600000008142241000014F5
:102CC00014141414000041221408000201510906D2
:102CD00000324959513E007C1211127C007F494953
:102CE0004936003E41414122007F4141221C007F84
:102CF00049494941007F09090901003E4149497A92
:102D0000007F0808087F0000417F4100002040410B
:102D10003F01007F08142241007F40404040007F77
:102D2000020C027F007F0408107F003E4141413EBB
:102D3000007F09090906003E4151215E007F091903
:102D400029460046494949310001017F0101003F00
:102D50004040403F001F2040201F003F4038403F80
:102D600000631408146300070870080700615149E4
:102D7000454300007F41410000552A552A55000077
:102D800041417F00000402010204004040404040F5
:102D9000000001020400002054545478007F48448D
:102DA000443800384444442000384444487F0038C4
:102DB0005454541800087E0901020018A4A4A47CED
:102DC000007F080404780000447D400000408084B7
:102DD0007D00007F102844000000417F4000007CFF
:102DE00004180478007C080404780038444444380B
:102DF00000FC242424180018242418FC007C080457
:102E0000040800485454542000043F444020003C2F
:102E10004040207C001C2040201C003C4030403CB6
:102E2000004428102844001CA0A0A07C0044645446
:102E30004C4414141414141400000000000000008A
:102E40000000000000000000000000F8000000008A
:102E5000000000333000000000100C06100C0600CB
:102E6000000000000000000040C07840C078400032
:102E7000043F04043F040400007088FC0830000094
:102E8000001820FF211E0000F008F000E0180000EC
:102E900000211C031E211E0000F0088870000000A5
:102EA0001E2123241927211010160E0000000000F7
:102EB0000000000000000000000000E01804020014
:102EC000000000071820400000020418E000000085
:102ED0000040201807000000404080F08040400083
:102EE0000202010F01020200000000F000000000D9
:102EF0000101011F010101000000000000000000AD
:102F000080B0700000000000000000000000000021
:102F100000010101010101010000000000000000AA
:102F20000030300000000000000000008060180445
:102F3000006018060100000000E010080810E00022
:102F4000000F102020100F00001010F800000000EB
:102F50000020203F20200000007008080888700032
:102F600000302824222130000030088888483000B2
:102F70000018202020110E000000C02010F80000D2
:102F800000070424243F240000F80888880808006B
:102F90000019212020110E0000E010888818000080
:102FA000000F112020110E0000380808C838080052
:102FB0000000003F000000000070880808887000D2
:102FC000001C222121221C0000E010080810E00053
:102FD0000000312222110F00000000C0C0000000DC
:102FE0000000003030000000000000800000000001
:102FF00000008060000000000000804020100800F9
:1030000000010204081020004040404040404000C1
:10301000040404040404040000081020408000009C
:103020000020100804020100007048080808F000A1
:103030000000003036010000C030C828E810E00071
:103040000718272423140B000000C038E0000000FC
:10305000203C23020227382008F888888870000066
:10306000203F202020110E00C0300808080838003A
:10307000071820202010080008F808080810E000B1
:10308000203F202020100F0008F88888E808100052
:10309000203F20202320180008F88888E808100026
:1030A000203F200003000000C0300808083800005E
:1030B00007182020221E020008F808000008F8085F
:1030C000203F210101213F20000808F808080000E6
:1030D0000020203F2020000000000808F808080019
:1030E000C08080807F00000008F888C02818080091
:1030F000203F20012638200008F8080000000000CA
:10310000203F20202020300008F8F800F8F80800C0
:10311000203F003F003F200008F830C00008F808BA
:10312000203F200007183F00E01008080810E000CA
:103130000F10202020100F0008F808080808F000E1
:10314000203F210101010000E01008080810E00004
:103150000F18242438504F0008F888888888700099
:10316000203F2000030C3020007088080808380039
:103170000038202121221C00180808F8080818002F
:103180000000203F2000000008F808000008F808B0
:10319000001F202020201F000878880000C8380861
:1031A000000007380E010000F80800F80008F800D9
:1031B000033C0700073C0300081868808068180873
:1031C00020302C03032C30200838C800C8380800F1
:1031D0000000203F2000000010080808C838080040
:1031E0002038262120201800000000FE02020200E4
:1031F0000000007F40404000000C30C00000000094
:10320000000000010638C00000020202FE000000BB
:10321000004040407F000000000004020202040061
:10322000000000000000000000000000000000009E
:103230008080808080808080000202040000000086
:10324000000000000000000000008080808000007E
:103250000019242222223F2008F80080800000006C
:10326000003F112020110E0000000080808000002F
:10327000000E112020201100000000808088F8003E
:10328000000E112020103F20000080808080000070
:10329000001F222222221300008080F088888818D4
:1032A0000020203F202000000000808080808000DF
:1032B000006B94949493600008F800808080000074
:1032C000203F210000203F2000809898000000004F
:1032D0000020203F2020000000000080989800007F
:1032E00000C08080807F000008F80000808080009F
:1032F000203F24022D302000000808F800000000C4
:103300000020203F2020000080808080808080007E
:10331000203F20003F20003F808000808080000010
:10332000203F210000203F2000008080808000009E
:10333000001F202020201F008080008080000000CF
:1033400080FFA12020110E000000008080808000FE
:10335000000E112020A0FF808080800080808000EF
:1033600020203F212000010000008080808080001C
:103370000033242424241900008080E08080000091
:103380000000001F202000008080000000808000DE
:10339000001F202020103F2080808000008080803F
:1033A00000010E30080601008080008000808080CF
:1033B0000F300C030C300F000080800080808000F4
:1033C0000020312E0E31200080808000008080801F
:1033D00080818E70180601000080808080808000CF
:1033E0000021302C2221300000000000807C0202ED
:1033F00000000000003F404000000000FF0000000F
:1034000000000000FF0000000002027C80000000BD
:103410000040403F000000000006010102020404D9
:103420000000000000000000313233343536000067
:1034300034372E3130392E3133332E3837000000F7
:103440003838383838383838000000004F6E65504A
:103450006C757320390000007075626C6963000040
:103460004C6F6E6769747564650000004C61746927
:1034700074756465000000006E7470312E616C69B3
:1034800079756E2E636F6D0061646D696E0000006A
:103490006361747465737400B83400080000002020
:1034A000FC0000001C200008B4350008FC000020CF
:1034B0003C0D00002C200008000000000102030465
:1034C00001020304060708090204060800000000C0
:1034D00000000000000000000000000000000000EC
:1034E00000000000000000000000000000000000DC
:1034F00000000000000000000000000000000000CC
:1035000000000000000000000000000000000000BB
:1035100000000000000000000000000000000000AB
:10352000000000000000000000000000000000009B
:10353000000000000000000000000000000000008B
:10354000000000000000000000000000000000007B
:10355000000000000000000000000000000000006B
:10356000000000000000000000000000000000005B
:10357000000000000000000000000000000000004B
:10358000010000004C3400084034000858340008A2
:1035900088340008283400083034000890340008CB
:1035A000603400086C340008783400080100000022
:0435B0000000000017
:0400000508000101ED
:00000001FF
